:100000000C94BC080C94D9080C94D9080C94D90809
:100010000C94D9080C94D9080C94D9080C94D908DC
:100020000C94D9080C94D9080C94D9080C94D908CC
:100030000C94D9080C94D9080C94D9080C94D908BC
:100040000C94D9080C94D9080C94EA130C94151448
:100050000C94D9080C94D9080C94D9080C94D9089C
:100060000C94D9080C94D908BF13C713E113D1130A
:10007000E113E113E113E113E113E113E113E113E0
:10008000E113E113E113E113E113E113E113E113D0
:10009000E113E113E113E113E113E113E113E113C0
:1000A000E113E113B913E113E113E113E113E113D8
:1000B000E113E113E113AD13E113E113E113E113D4
:1000C000E113E113E113E113E113E113D713DC139F
:1000D00000407A10F35A00A0724E18090010A5D4FF
:1000E000E80000E87648170000E40B54020000CA5C
:1000F0009A3B000000E1F5050000809698000000A2
:1001000040420F000000A086010000001027000000
:100110000000E803000000006400000000000A0086
:10012000000000000100000000002C76D888DC6789
:100130004F0823DFC1DFAE59E1B1B796E5E3E453E1
:10014000C63AE651997696E8E6C28426EB898C9BFE
:1001500062ED407C6FFCEFBC9C9F40F2BAA56FA59E
:10016000F490055A2AF75C936B6CF9676DC11BFC20
:10017000E0E40D47FEF520E6B500D0ED902E03003B
:10018000943577050080841E080000204E0A000088
:1001900000C80C333333330F986E12831141EF8D47
:1001A0002114893BE65516CFFEE6DB18D1844B3887
:1001B0001BF77C1D901DA4BBE424203284725E22B8
:1001C0008100C9F124ECA1E53D27FFE0FFD1AFFF9D
:1001D00032FFD0FFFEFFE0FFD1AEFFD0FFFEFFE019
:1001E000FFD11000FFFEFFD0FFE0FFC1FFD1AED571
:1001F00080A83FD300408D142000A1C8DA1281CF1F
:10020000D9F1DB402EA4A6AFFFD0FFFE001815FFEA
:10021000FC0B0252053720FFFD11FC0BFD00000016
:10022000050000020B0B060200C0C0C0C0C0C0C069
:10023000C00000C0060505080106CCCCCCCCCC0A19
:100240000B160B01000980198019007FC0330032A2
:10025000003600FF0064006C004C00080E0E0A011E
:10026000FE083E7ECBC8F87E0F0BCBEB7E08080F56
:100270000B161101003C20EE60C640C6C0E7807D31
:100280007C03EE02C606C604EE087C0B0B160D01BD
:10029000003E007700630077003C007CC0EEC0C7E2
:1002A000C0C3C0F3C03FE0020505070206C0C0C0DE
:1002B000C0C0030E0E0601FD606060E0C0C0C0C09B
:1002C000C0C0E0606060030E0E0702FDC0C0C060E9
:1002D00060606060606060E0C0C00605050A0205FD
:1002E0007830FC3078090912100300080008000873
:1002F000000800FF8008000800080008000304044C
:100300000501FE6060C0C0040202060103F0F002B5
:100310000202050200C0C0050C0C0701FF181810EE
:1003200030302020606040C0C0080B0B0901003C49
:1003300066C3C3C3C3C3C3C3663C040B0B0902003B
:1003400030F0F03030303030303030080B0B0901F5
:10035000003E77630307061E3C70E0FF080B0B09A5
:1003600001007CEEC6063C0603C3C77E3C080B0BAF
:100370000901000E1E1E366666C6FFFF0606080B44
:100380000B090100FEC0C0C0FEE70303C7FE7C08E6
:100390000B0B0901003C7643C0DEE7C3C3C3663CD8
:1003A000080B0B090100FF0307060E0C1C18383858
:1003B00070080B0B0901007EE7C3E73C66C3C3C3AB
:1003C000E73C080B0B0901003C66C3C3E77F03034E
:1003D000C66E3C020808050200C0C000000000C054
:1003E000C0030A0A0501FE6060000000006060C0F2
:1003F000C00A0810100301004003800C0070008048
:100400000070000E0001C00A0408100303FFC000C2
:10041000000000FFC00A0810100301800060001CEB
:1004200000038000C007001800E000070B0B090163
:100430000078EE86060C1830303000300F0E1C119C
:1004400001FD07E01E78301C67ECEEE6CC66CC665A
:10045000CC66CC66EFFC67B830001C2007E00B0BC5
:10046000160B00000E000E000F001B001B803980D1
:1004700031803FC07FC060E0E060090B160B0100D7
:10048000FE00C700C300C300C700FC00C300C1805A
:10049000C180C380FE000A0B160C01001F00738090
:1004A00061C0C000C000C000C000C1C061C0738096
:1004B0001F00090B160B0100FC00CF00C300C18018
:1004C000C180C180C180C180C300CF00FC00080B87
:1004D0000B0A0100FFC0C0C0C0FFC0C0C0C0FF0801
:1004E0000B0B090100FFC0C0C0C0FEC0C0C0C0C02F
:1004F0000A0B160C01001F003BC060C0E000C000EA
:10050000C3C0C0C0C0C060C039C01FC0090B160B3B
:100510000100C180C180C180C180C180FF80C180D5
:10052000C180C180C180C180020B0B040100C0C02A
:10053000C0C0C0C0C0C0C0C0C0080B0B0A010003CF
:10054000030303030303C3C3FE7C090B160B010063
:10055000C300C700CE00DC00F800F800DC00CE00CD
:10056000CE00C700C380080B0B090100C0C0C0C08B
:10057000C0C0C0C0C0FFFF0D0B160F0100F078F027
:1005800078F8F8D8D8D8D8DDD8CD98CD98CF98C7F6
:1005900018C7180A0B160C0100F0C0F0C0F8C0D83C
:1005A000C0DCC0CCC0CEC0C6C0C7C0C3C0C3C00BB7
:1005B0000B160D01001F007BC060C0C060C060C092
:1005C00060C060C06060C07BC01F00080B0B0A01E8
:1005D00000FCC7C3C3C7FEC0C0C0C0C00C0B160E12
:1005E00001001F007B8060C0C060C060C060C06050
:1005F000C06060C07BC01FF0090B160B0100FE003D
:10060000C780C180C180C300FE00C300C180C1801B
:10061000C180C180090B160B01003E007700C1802C
:10062000E000F8007F000F800180C18077003E006D
:10063000090B160B0100FF800C000C000C000C00D5
:100640000C000C000C000C000C000C000A0B160C2B
:100650000100C0C0C0C0C0C0C0C0C0C0C0C0C0C019
:10066000C0C0E1C073803E000B0B160C0000E060C0
:10067000606070E030C031C0398019801F801F0079
:100680000F000E00100B16100000E18763C663C652
:1006900063C677CE366C366C366C3C3C1C381C38E6
:1006A0000B0B160B000070C031C03B801F000E000A
:1006B0000E001F001B00338071C0E0E00A0B160A19
:1006C0000000E1C0718033803B001F001E000C0061
:1006D0000C000C000C000C00080B0B0A0100FF07BB
:1006E000060E1C18387060C0FF040E0E0601FDF0E7
:1006F000C0C0C0C0C0C0C0C0C0C0C0C0F0050C0CED
:100700000701FF80C0C04060602030301010180426
:100710000E0E0701FDF030303030303030303030E8
:100720003030F0080A0A100400101818242424425B
:100730004281810801010800FEFF03030304000950
:10074000C040200708080901003C6E067EE6C6EEA0
:1007500076080B0B0A0100C0C0C0DCF6C7C3C3C3D8
:10076000E6DC0708080901003C6EC6C0C0C6EE3CC6
:10077000080B0B0A01000303033B6FE3C3C3C3670A
:100780003B0708080901003C6EC6FEC0C66E3C056A
:100790000B0B070100383030F8303030303030305B
:1007A000080B0B0A01FD3B6FE3C3C3C3673B036741
:1007B0003C070B0B090100C0C0C0DCEEC6C6C6C6B4
:1007C000C6C6020B0B040100C0C000C0C0C0C0C040
:1007D000C0C0C0030E0E0501FD6060006060606077
:1007E0006060606060E0E0070B0B090100C0C0C002
:1007F000CEDCD8F0D8DCCCC6020B0B040100C0C0A4
:10080000C0C0C0C0C0C0C0C0C00C08100E0100DC19
:10081000E0EF70C630C630C630C630C630C63007CE
:100820000808090100DCEEC6C6C6C6C6C608080828
:100830000A01003C66C3C3C3C3663C080B0B0A0134
:10084000FDDCE6C3C3C3C7F6DCC0C0C0080B0B0A9F
:1008500001FD3B67C3C3C3C36F3B03030305080824
:10086000070100D8F0C0C0C0C0C0C0070808090117
:10087000007CEEC0F81EC6EE7C060A0A08010030B5
:1008800030FC3030303030381C070808090100C611
:10089000C6C6C6C6C6EE76080808090000E3636748
:1008A00076363C1C1C0D08100E0000E71867986790
:1008B000986FB03DF03CF03CF038E00808080900C3
:1008C0000063763E1C3C3E67E3080B0B0900FDE32A
:1008D000637736363E1C1C181838060808080100D5
:1008E000FC0C18387060C0FC060F0F0801FC1C38A7
:1008F0003030303070C06030303030301C0110107B
:100900000502FC8080808080808080808080808064
:10091000808080060F0F0801FCE070303030301806
:100920000C183030303030F008020209000379DF53
:10093000FFFFFFFFFFFFFFFFFFFFFFFFFFFFFFFFC7
:10094000FFFFFFFFFFFFFFFFFFFFFFFFFFFFFFFFB7
:10095000FF000000050000020B0B0602FDC00000B6
:10096000C0C0C0C0C0C0C0C0070C0C0901FE040458
:100970003C6ECED0D0D66E3C2040080B0B0A010056
:100980003E776060FC6060606060FF0908100A01EB
:100990000280805D0022004100410022005D008055
:1009A00080090B160B0100C38063006700F7803ECF
:1009B000003C00FF801800180018001800010E0EFF
:1009C0000502FD80808080808000008080808080A3
:1009D00080060E0E0801FD78ECC0E0787CCCCCF8E7
:1009E000781C0C9CF805010105000AD80C0B160EAA
:1009F00001001F8039C06F60D9B09810981099908D
:100A00008F10402030C01F8005080807010370D8F0
:100A100078D8D87800F80806060A01016766EECE95
:100A200066670904080A0003FF80008000800080D8
:100A3000FF0C0B160E01001F8039C06F60C9B08813
:100A4000908F108990889048A030C01F80050101C8
:100A500005000AF804040406010760D090F0090AB2
:100A600014100300080008000800FF8008000800B8
:100A7000080000000000FF8005060607010570D889
:100A80001830C0F805070707010470D8187018D887
:100A90007003030304010960C080FF070E0E090103
:100AA000FD7EF4F4F4F474141414141414141402E5
:100AB0000202040104C0C00404040300FC4030B07E
:100AC000E003060605010560E06060606006080856
:100AD00008010378FCCCCCCC7800FC0806060A019F
:100AE00001CC66676766CC0C0B160D0100E08061D7
:100AF000806300630066006CE00CE019E01960336D
:100B0000F060600B0B160D01006100E300620066EF
:100B10000064006DE01B60186031C0230063E00CCE
:100B20000B160D010078C0D8807180D900730006C3
:100B30006004E00DE0196019F03060070B0B09014B
:100B4000FD180018183870E0C0C2FE3C0B10200BD6
:100B5000000018000C000400000000000E000E0051
:100B60000F001B001B80398031803FC07FC060E0D8
:100B7000E0600B10200B00000300020004000000E6
:100B800000000E000E000F001B001B80398031801A
:100B90003FC07FC060E0E0600B10200B000006004B
:100BA0000E001900000000000E000E000F001B00D8
:100BB0001B80398031803FC07FC060E0E0600B0F58
:100BC0001E0B00000D001700000000000E000E00BC
:100BD0000F001B001B80398031803FC07FC060E068
:100BE000E0600B0F1E0B00001B0000000000000067
:100BF0000E000E000F001B001B003B8031803FC029
:100C00007FC060E0E0600A11220C01000C001200BD
:100C100012001E00000000000C001E001E003F001D
:100C20003300330063807F80FFC0C0C0C0C00F0BA3
:100C30001610000003FE078007800D801D8019FE3E
:100C400039803F8061806180C1FE0A0F1E0C01FC6B
:100C50001F00778061C0C000C000C000C000C1C0DC
:100C600061C073803E0008000E0002001C000810E6
:100C7000100A01006030180000FFC0C0C0C0FFC0F3
:100C8000C0C0C0FF0810100A01000C08100000FFCF
:100C9000C0C0C0C0FFC0C0C0C0FF0810100A010023
:100CA000183C240000FFC0C0C0C0FFC0C0C0C0FFCF
:100CB000080F0F0A010066000000FFC0C0C0C0FF9F
:100CC000C0C0C0C0FF04101004FF00C060300000AE
:100CD00030303030303030303030300410100401DB
:100CE000007060C00000C0C0C0C0C0C0C0C0C0C0F4
:100CF000C004101004000060F090000060606060AC
:100D000060606060606060050F0F050000D8000043
:100D10000030303030303030303030300B0B160C8B
:100D200000007F00638060C060E06060FC60606025
:100D300060E060C063807F000A0F1E0C0100190094
:100D4000160000000000F0C0F0C0F8C0D8C0DCC041
:100D5000CCC0CEC0C6C0C7C0C3C0C3C00B10200D1E
:100D60000100180008000C00000000001F007BC0FC
:100D700060C0C060C060C060C060C06060C07BC058
:100D80001F000B10200D01000300020004000000F2
:100D900000001F007BC060C0C060C060C060C06059
:100DA000C06060C07BC01F000B10200D01000E0052
:100DB0001B001100000000001F007BC060C0C0606D
:100DC000C060C060C060C06060C07BC01F000B0F0F
:100DD0001E0D01001F000000000000001F007BC06E
:100DE00060C0C060C060C060C060E0E060C07FC044
:100DF0001F000B0F1E0D01001B0000000000000073
:100E00001F007BC060C0C060C060C060C060C060C8
:100E100060C07BC01F0008080810040081C366186A
:100E2000182442810B0B160D01001FA03BC060C0AF
:100E3000C160C260C460C860D060E0C07B80BF0099
:100E40000A10200C0100300018000800000000000B
:100E5000C0C0C0C0C0C0C0C0C0C0C0C0C0C0C0C092
:100E6000E1C07F803E000A10200C01000300060054
:100E7000040000000000C0C0C0C0C0C0C0C0C0C0EE
:100E8000C0C0C0C0C0C0E1C07F803E000A10200CBE
:100E900001001C001E00330000000000C0C0C0C0E4
:100EA000C0C0C0C0C0C0C0C0C0C0C0C0E1C07F80A2
:100EB0003E000A0F1E0C010033000000000000007D
:100EC000C0C0C0C0C0C0C0C0C0C0C0C0C0C0C0C022
:100ED000E1C073803E000A10200A000006000600F0
:100EE000040000000000E1C0718033803B001F005F
:100EF0001E000C000C000C000C000C00080B0B0A70
:100F00000100C0C0FEC7C3C3C7FEC0C0C0080B0BF2
:100F10000A01007CEEC6CEDCD8CEC7C3DBDE070CF0
:100F20000C090100603010003C6E067EE6C6EE76CD
:100F3000070C0C0901000C1810003C6E067EE6C67A
:100F4000EE76070C0C090100382C44003C6E067E3E
:100F5000E6C6EE76070B0B0901003C00003C6E066E
:100F60007EE6C6EE76070B0B0901006C00003CE63E
:100F7000067EE6C6EE76070D0D0901001824243C16
:100F8000003C66067EE6C6EE7E0D08100F01003CB2
:100F9000E067B007187FF8E700C718EDB878F007EA
:100FA0000C0C0901FC3C6EC6C0C0C66E3C101C0493
:100FB00038070D0D09010060203010003C6EC6FEA0
:100FC000C0C66E3C070D0D0901000C0C1810003C4A
:100FD0006EC6FEC0C66E3C070D0D09010018382C08
:100FE00044003C6EC6FEC0C66E3C070C0C090100F6
:100FF0006C0000003C6EC6FEC0CE6E3C030C0C04C0
:101000000000C06020006060606060606060030C91
:101010000C04010060C08000C0C0C0C0C0C0C0C01F
:10102000050C0C04000060D08800606060606060A7
:101030006060050B0B050000D80000303030303008
:10104000303030080B0B0A0100331C663E67C3C307
:10105000C3C3673C070B0B0901003C0000DCEEC674
:10106000C6C6C6C6C6080D0D0A01006030100800CD
:101070003C66C3C3C3C3663C080D0D0A0100060CE1
:101080000810003C66C3C3C3C3663C080D0D0A01CB
:1010900000181C2422003C66C3C3C3C3663C080B73
:1010A0000B0A01003C00003C66C3C3C3C3663C0896
:1010B0000C0C0A0100660000003C66C3C3C3C36693
:1010C0003C0A060C1003020C000000FFC0000000E8
:1010D000000C00080A0A0A01FF013E66CFCBD3E3E9
:1010E00076FC80070C0C09010060301000C6C6C6F3
:1010F000C6C6C6EE76070C0C0901000C181000C617
:10110000C6C6C6C6C6EE76070C0C090100382844D0
:1011100000C6C6C6C6C6C6EE76070B0B0901006C34
:101120000000C6C6C6C6C6C6EE760910200900FD78
:10113000070006000C0008000000638063007300D5
:10114000360036001E001C001C001C00F800700059
:10115000080E0E0A01FDC0C0C0DCE6C3C3C3C7E66B
:10116000DCC0C0C0080E0E0901FD6C0000C7C6EE51
:101170006C6C3C383838303011241FBECFEFD8E0CB
:10118000DEBFCDBF11E0A0E0B1E0EAEBF1E302C0C9
:1011900005900D92A433B107D9F722E0A4E3B1E0A2
:1011A00001C01D92A333B207E1F70E94F60A0C9426
:1011B000DB180C9400001092B90080E28093B80014
:1011C000089594EA9093BC004FEF50E060E070E027
:1011D000ECEBF0E09081992334F041505109610922
:1011E0007109C0F704C0452B462B472B41F1909164
:1011F000B900987F983011F0903119F58093BB00B9
:1012000084E88093BC008FEF90E0A0E0B0E0ECEBCE
:10121000F0E0208122232CF00197A109B109C8F741
:1012200004C0892B8A2B8B2B71F09091B900987F89
:10123000983159F081E0903449F480E0089581E0DC
:10124000089581E0089581E0089580E0089584E99B
:101250008093BC0080E090E0ECEBF0E0208124FF84
:1012600005C00196811521E09207C1F7089580938A
:10127000BB0084E88093BC008FEF90E0A0E0B0E07A
:10128000ECEBF0E0208122232CF00197A109B109B9
:10129000C8F704C0892B8A2B8B2B41F09091B900A1
:1012A000987F81E0983219F480E0089581E00895F4
:1012B00084EC8093BC008FEF90E0A0E0B0E0ECEB1A
:1012C000F0E0208122232CF00197A109B109C8F791
:1012D00004C0892B8A2B8B2B19F08091BB000895B9
:1012E00080E0089584E88093BC008FEF90E0A0E058
:1012F000B0E0ECEBF0E0208122232CF00197A10973
:10130000B109C8F704C0892B8A2B8B2B19F0809167
:10131000BB00089580E00895CF93DF93C82F80ED40
:101320000E94E1088C2F0E9437098AE18A95F1F723
:1013300000C081ED0E94E1080E945809D82F0E9448
:101340007209C82F0E9427096C2F70E07D2B072E91
:10135000000C880B990B0E9456159F770E941E1552
:10136000072E000C880B990B0E94561520E030E0E8
:1013700040E858E30E94E215DF91CF910895CF93A2
:10138000DF93EC018CEF91E00E9499129E0140E204
:1013900062E08CEF91E00E94EA108CEF91E00E94F5
:1013A0009F128111F3CFDF91CF9108958F929F9279
:1013B000AF92BF92CF92DF92EF92FF920F931F9363
:1013C000CF93DF93CDB7DEB72F970FB6F894DEBF7C
:1013D0000FBECDBF49015A016701780120910E016E
:1013E00030910F013A8329831B821C821D823F8327
:1013F0002E83188619861A863C872B871D861E86A3
:101400001F868E010F5F1F4F23E041E00E9455169B
:101410000B5F1F4F23E041E0C501B4010E94551648
:101420000B5F1F4F23E041E0C701B6010E94551634
:101430008CEF91E00E9499129E012F5F3F4F40E197
:1014400062E08CEF91E00E94EA109E012A5F3F4F1C
:1014500041E262E08CEF91E00E94EA109E01255F7C
:101460003F4F42E362E08CEF91E00E94EA108CEF84
:1014700091E00E949F128111DFCF2F960FB6F89452
:10148000DEBF0FBECDBFDF91CF911F910F91FF90B7
:10149000EF90DF90CF90BF90AF909F908F90089586
:1014A0002F923F924F925F926F927F928F929F9274
:1014B000AF92BF92CF92DF92EF92FF920F931F9362
:1014C000CF93DF9300D000D0CDB7DEB78C011B01E6
:1014D0005A83498384E191E00E94BF098AE090E049
:1014E0009C838B83C12CD12C7601460157012601A8
:1014F00037018BE390E00E948C099B01AC01C30192
:10150000B2010E9440142B013C018DE390E00E9447
:101510008C099B01AC01C501B4010E9440144B0130
:101520005C018FE390E00E948C099B01AC01C70134
:10153000B6010E9440146B017C01EFE1FEE431979B
:10154000F1F700C000008B819C8101979C838B8305
:10155000892B79F620E030E040E251E4C301B2018A
:101560000E94AC14F801608371838283938320E02E
:1015700030E040E251E4C501B4010E94AC14F10135
:10158000608371838283938320E030E040E251E402
:10159000C701B6010E94AC14E981FA8160837183AE
:1015A0008283938383E291E00E94BF09FFEF24E3EB
:1015B0008CE0F15020408040E1F700C000000F9027
:1015C0000F900F900F90DF91CF911F910F91FF908F
:1015D000EF90DF90CF90BF90AF909F908F907F90D3
:1015E0006F905F904F903F902F900895CF93DF932F
:1015F000CDB7DEB760970FB6F894DEBF0FBECDBF94
:1016000040E060E071E08CEF91E00E9483126CE0BA
:1016100072E08CEF91E00E94761119821A821B828F
:101620001C821D821E821F82188619861A861B86BE
:101630001C86AE01475F5F4FBE016B5F7F4FCE01DF
:1016400001960E94500A7894209A0E946E0C2FE70F
:1016500088E391E0215080409040E1F700C0000015
:101660008FE291E00E94BF098BE390E00E948C0919
:1016700029813A814B815C810E943F146D877E876E
:101680008F87988B8DE390E00E948C092D813E819D
:101690004F8158850E943F142B013C018FE390E05D
:1016A0000E948C0929853A854B855C850E943F14F0
:1016B0004B015C0185017401A30192016D857E855A
:1016C0008F8598890E94D609F5CFAF92BF92DF929D
:1016D000EF92FF920F931F93CF93DF936623B9F19D
:1016E000C52FD42FD62E182F80ED0E94E108812F10
:1016F0000E9437098AE18A95F1F700C081ED0E94C6
:10170000E1080D2F1C2FEE24EA94ED0CF12CEFEFE5
:10171000EE1AFE0AC0E0D0E0AD2CB12CF1E0AF1A19
:10172000B108CA15DB0529F40E947209F80180830B
:1017300004C00E945809F801808321960F5F1F4F53
:10174000CE15DF0571F7CD2D0E94270901C0C0E03D
:101750008C2FDF91CF911F910F91FF90EF90DF9031
:10176000BF90AF900895AB0161E00E94650B0895B2
:10177000EF92FF920F931F93CF93DF936623D1F0E5
:101780007A01162FC82F80ED0E94E1088C2F0E944D
:101790003709E7016FEF610F062F10E00F5F1F4F52
:1017A0000E0D1F1D89910E943709C017D107D1F76F
:1017B0000E942709DF91CF911F910F91FF90EF9029
:1017C0000895CF93DF931F92CDB7DEB76983AE0143
:1017D0004F5F5F4F61E00E94B80B0F90DF91CF9198
:1017E0000895EF92FF920F931F93CF93DF931F9271
:1017F000CDB7DEB7442389F1F22E142F062FE82E41
:101800001982BE016F5F7F4F0E94B30B882329F1BD
:10181000402F50E0411B51094F5F5F4F81E090E046
:1018200002C0880F991F1A95E2F70197042E02C093
:10183000880F991F0A94E2F72F2D30E002C0220F83
:10184000331F4A95E2F7682F6095998169238223B7
:10185000682B69838E2D0E94E10B0F90DF91CF9151
:101860001F910F91FF90EF900895FF920F931F9398
:10187000CF93DF931F92CDB7DEB7182F062FF42E2C
:10188000BE016F5F7F4F0E94B30BFF2059F021E034
:1018900030E0B90102C0660F771F0A95E2F789812F
:1018A000682B0BC021E030E0B90102C0660F771F42
:1018B0000A95E2F76095998169236983812F0E94D7
:1018C000E10B0F90DF91CF911F910F91FF90089541
:1018D00040E066E08BE60E94350C08950E94DB082C
:1018E0002AE12A95F1F700C08FEF90E722E08150BE
:1018F00090402040E1F700C000000E94680C8FE19A
:101900009EE40197F1F700C0000021E043E062E0AF
:101910008BE60E94F10B23E043E062E08AE10E9443
:10192000F10B64E089E10E94E10B23E042E064E016
:101930008BE10E94F10B20E042E064E08CE10E9428
:10194000F10B08950F93FC010150040F84A996A98F
:10195000941738F0081768F481E0041740F080E02D
:1019600006C00817D0F081E0041708F080E0882353
:10197000C9F02150260F83A995A9961738F028178A
:1019800070F481E0261770F080E00CC0281748F052
:1019900081E0261738F080E005C080E003C081E0D8
:1019A00001C080E00F910895DB011496ED91FC9148
:1019B000159720E030E061E009950895DB01149669
:1019C000ED91FC91159720E030E063E009950895D2
:1019D000DB011496ED91FC91159720E030E040E09A
:1019E00064E009950895DB011496ED91FC9115973B
:1019F00020E030E041E064E009950895DB011496B1
:101A0000ED91FC91159720E030E062E00995089592
:101A1000DB011496ED91FC91159720E030E065E034
:101A200009950895DB011496ED91FC91159766E0F8
:101A300009950895AF92BF92CF92DF92EF92FF92F5
:101A40000F931F93CF93DF936C017B018A01D0E04A
:101A5000B12CAA24A394F801C491D1110BC0CF3F9B
:101A600009F44AC04C2FB701C6010E94080D81112C
:101A700048C04BC0CF3F51F44FEFB701C6010E94A1
:101A8000080D882309F441C0DB2D3BC0CE3FE1F1B6
:101A9000C03FA0F5C03E40F04C2F4F70B701C601CB
:101AA0000E94FE0CDB2D2DC0C03D40F04C2F4F702E
:101AB000B701C6010E94DE0CDB2D23C0C03CA0F0A4
:101AC000B701C6010E94E80CC295C07FCE5FD0E08E
:101AD000CE010E94020FB701C6010E94F30CCE0195
:101AE0000E94020FDB2D0DC0CC2354F08C2F90E010
:101AF0000E94020FDB2D05C0DA2D03C0DB2D01C0D3
:101B0000DB2D0F5F1F4FA7CF81E0DF91CF911F919A
:101B10000F91FF90EF90DF90CF90BF90AF9008951E
:101B2000CF93DF93FC0123A52223B1F0EC0188E7DA
:101B30000E949A0E882389F08EA1811105C00E940F
:101B4000D70E811106C009C080E40E94D70E8823F9
:101B500021F01BA681E001C081E0DF91CF910895C3
:101B6000CF92DF92EF92FF920F931F93CF93E42EC9
:101B700089016330B1F030F4613069F0623009F40A
:101B80006FC074C0663041F1673009F448C06530F9
:101B900009F06CC010C0FC0186A50E94520EC1E085
:101BA0006AC0FC0116A221E023A7411161C00E9476
:101BB000FA0EC1E060C00E94900DC82F811103C0D1
:101BC0000E94FA0E58C08E2D0E94D70EC82F811188
:101BD00051C00E94FA0E4FC00E94900DC82F88235A
:101BE00021F0E11005C0C1E046C00E94FA0E43C0DA
:101BF0006801EA948E2D90E00196080F191FF601F6
:101C000081916F010E94D70EC82F811103C00E94DD
:101C1000FA0E31C0C016D10691F7C1E02CC00E9467
:101C2000900DC82F882321F0E11005C0C1E023C02A
:101C30000E94FA0E20C0EA94F12CFFEFEF1AFF0A7F
:101C4000E00EF11EF80184910E94D70EC82F882360
:101C500091F00F5F1F4F0E151F05A1F7C1E00BC0DC
:101C6000FC0146A321E023A7C1E005C0C1E003C0F9
:101C7000C1E001C0C1E08C2FCF911F910F91FF9067
:101C8000EF90DF90CF90089590913601911104C0AC
:101C900080933601609334010895109236011092BA
:101CA00034010895809335011092B90084FF04C077
:101CB00082E08093B80003C080E28093B8000E9465
:101CC0004D0E08951F93CF93DF9300D0CDB7DEB7AD
:101CD00020ED37E03A8329839091BC00982301F5E9
:101CE00029813A81232B39F0ECEBF0E00EC02981F9
:101CF0003A81232B51F480913501182F127081FD08
:101D000011C081E00E94440E0EC029813A81215009
:101D100031093A8329839081982349F311E003C064
:101D200011E001C011E0812F0F900F90DF91CF9152
:101D30001F910895CF93DF93D82F94EA9093BC001E
:101D400061E080E80E94620EC82F882361F19091C3
:101D5000B900987F983041F0903131F061E082E035
:101D60000E94440EC0E01FC0D093BB0084E8809363
:101D7000BC0062E080E80E94620EC82F882399F0C0
:101D800080913501C82FC27081FD0AC08091B900D1
:101D9000887F883139F062E082E00E94440E03C0FF
:101DA000C1E001C0C1E08C2FDF91CF910895CF93A6
:101DB0008093BB0084E88093BC0063E080E80E94CD
:101DC000620EC82F882399F080913501C82FC27008
:101DD00081FD0AC08091B900887F883239F063E0C4
:101DE00082E00E94440E03C0C1E001C0C1E08C2F1C
:101DF000CF91089584E98093BC0064E080E10E9463
:101E0000620E0895009739F02EEC37E0F901319712
:101E1000F1F70197D9F70895AF92BF92CF92DF9271
:101E2000EF92FF920F931F93CF937C018B01C42FEE
:101E30006901403199F118F44A3031F03BC0413129
:101E400099F1453159F036C042E00E94D40C46EE7B
:101E500051E0B801C7010E941A0D2CC0FB01A280FD
:101E6000B3804EED51E00E941A0DF5014481406BA4
:101E7000B801C7010E94080D41E0B801C7010E94E6
:101E8000FE0CA801B701C5010E9427138823C1F0E9
:101E900040E0B801C7010E94DE0C0CC045ED51E0E6
:101EA0000E941A0D81E00CC04AEC51E00E941A0D0C
:101EB00081E006C096014C2FB801C7010E949B1318
:101EC000CF911F910F91FF90EF90DF90CF90BF9037
:101ED000AF900895FC01E60FF11D849190E0982FDA
:101EE00088273196E4918E0F911D0895FC0184910D
:101EF00008950E94760F882321F0823011F083E04C
:101F0000089586E0089580E0089566E00E946A0FD3
:101F1000089568E00E946A0F08950A96FC01849172
:101F200008950B96FC0184910895AF92BF92CF92D1
:101F3000DF92EF92FF920F931F93CF93DF937C0179
:101F4000B62EDC011496CD91DC911597CE010E943E
:101F5000760F182FF701848195810E94790FD82E72
:101F6000113029F40F2EFFE0AF2EF02D02C0AA246D
:101F7000AA94D70114968D919C9115970E948D0F6C
:101F8000182FF701848195810E94910F082FD701A6
:101F900014968D919C9115970E94890FB0E6BB1500
:101FA00030F4009721F0C80FD91F11E60FC0F701D8
:101FB000848195810E94850FF0E4FB1530F4009731
:101FC00021F0C80FD91F11E401C061960B1590F4E0
:101FD000D70150961C92509753961C925397549643
:101FE0001C92549751961C92519752961C9280E0E5
:101FF00090E075C0011708F46AC02D2D30E06E0125
:10200000FE0194919F3F11F421965DC01B1152C0B7
:102010008E01D70114968D919C9115970E94760F91
:10202000882311F08230F1F4F601C490D701539661
:10203000CC925397F8013196E4915496EC935497CF
:10204000F8013396E4915096EC935097F80134964A
:10205000E4915196EC935197F8013596E49152969C
:10206000EC9325C0FE018491982F9F709250D70168
:1020700052969C935297C82EC694C694C694C69402
:102080005196CC925197FE013196E4918E2F8F702C
:1020900054968C935497E295EF705396EC93539724
:1020A000FE013296E491E295EF705096EC938C2FFE
:1020B0009D2F15C0FE013296E491EA21C9018E0FD1
:1020C000911DC80FD91F101711F01F5F98CFF7018E
:1020D000108A138A148A118A128A80E090E0DF91B4
:1020E000CF911F910F91FF90EF90DF90CF90BF9015
:1020F000AF9008956F927F928F929F92AF92BF920E
:10210000CF92DF92EF92FF920F931F93CF93DF93C3
:102110005C01162F642E622F0E94950F6C01892B93
:1021200009F448C0F501848195810E94790F982EA9
:10213000F501D389C4897188710E9289691AF62CC8
:10214000FC1A0C2F2D2F4F2D672DC5010E94A20CBC
:10215000811103C0F50180892EC0D95FED2EE69470
:10216000E694E694CC2319F1E601C90DD11D88242B
:102170008A948E0C912CFFEF8F1A9F0A11C0FE01DA
:10218000049120E04F2D612FC5010E94AF122196CE
:10219000185FCC15DD0599F7E601F394F61439F0D4
:1021A000EE20D9F36E01C80CD91C172DE8CFF5012C
:1021B000808901C080E0DF91CF911F910F91FF9046
:1021C000EF90DF90CF90BF90AF909F908F907F90D7
:1021D0006F900895CF92DF92FF920F931F93CF934A
:1021E000DF936C01C62FF42E8901DC015596ED9129
:1021F000FC9156970995F80EF8012081222381F071
:102200000F5F1F4FD0E04F2D6C2FC6010E947A1038
:10221000C80FD80FD8012D918D012111F4CF01C025
:10222000D0E08D2FDF91CF911F910F91FF90DF9024
:10223000CF900895DC0114968D919C91159700978D
:1022400009F44DC057962C91579721110DC0FC01F0
:102250003596E4915896EC935897FC013C96E4919E
:102260005996EC9359971BC0213069F4FC013F96B5
:10227000E4915896EC935897FC017096E491599626
:10228000EC9359970CC0FC013D96E4915896EC9361
:102290005897FC013E96E4915996EC9359975896BD
:1022A0008C915897082E000C990B59962C915997A0
:1022B000821B910927FD93955A962C915A972034A9
:1022C00061F0829FC00111240024880F991F001C17
:1022D000880F991F001C892F902D5B968C93089571
:1022E00023E83FE0FC01368B258B0895CF93DF93E5
:1022F000FC01248135812617370749F0EC017583ED
:1023000064830E941A1183E89FE09E8B8D8BDF917E
:10231000CF9108951F93CF93DF93EC011D821C8210
:102320001F821E82198681E0888782E28A871F8643
:102330001E86FE01B3969E012F5C3F4F8FEF819367
:10234000E217F307E1F711E018A3CE010E94701124
:102350001F8B188E198E80E48A8F1B8E89EE93E175
:102360009AAB89ABDF91CF911F910895DB01ED917D
:10237000FC91099508950F931F93CF93DF93EC0180
:102380008B01E9A9FAA982E0099520E030E04AE052
:10239000B801CE010E94B611182FE9A9FAA983E06D
:1023A0000995E9A9FAA980E00995812FDF91CF91DC
:1023B0001F910F9108950F931F93CF93DF93EC011B
:1023C0008B01E9A9FAA982E00995E9A9FAA981E0B6
:1023D000099520E030E044E1B801CE010E94B61139
:1023E0009E012D5C3F4F47E1B801CE010E94B6111E
:1023F000E9A9FAA980E00995DF91CF911F910F918A
:102400000895EF92FF921F93CF93DF93EC017B012E
:10241000E9A9FAA982E00995E9A9FAA981E0099553
:1024200020E030E045E1B701CE010E94B611182F3F
:10243000882341F09E012D5C3F4F47E1B701CE015B
:102440000E94B611E9A9FAA980E00995812FDF91D0
:10245000CF911F91FF90EF900895CF93DF931F923C
:10246000CDB7DEB79E012F5F3F4F46E40E94B61105
:1024700089810F90DF91CF910895CF93DF931F92C1
:10248000CDB7DEB79E012F5F3F4F47E40E94B611E4
:1024900089810F90DF91CF91089520E030E048E4EA
:1024A0000E94B6110895CF93DF93EC016A817B817E
:1024B0000E942D1288836A817B81CE010E943D1289
:1024C00089836A817B81CE010E944D128B879E0198
:1024D0002D5C3F4F6A817B8147E1CE010E94B6119E
:1024E000DF91CF910895CF93DF93EC016A817B81D7
:1024F0000E94BB11882321F0CE010E94531281E07B
:10250000DF91CF910895EF92FF921F93CF93DF93C6
:10251000EC017B01142F0E948A11FB82EA821EA724
:10252000CE010E947312DF91CF911F91FF90EF9027
:102530000895FC01628173810E94DB110895CF939D
:10254000DF93EC01EE85FF85309709F009956A81EC
:102550007B81CE010E940112DF91CF9108950F93EC
:10256000FC0182819381648F458F278F068F9F01A5
:10257000245E3F4F4BE3BC01CF010E94B6110F9187
:102580000895FC0112828081815083831482089512
:10259000FC0190818281890F82832181821760F4FE
:1025A00084818F5F84838381980F921710F09FEF4F
:1025B000920F938381E0089580E00895DC011696E0
:1025C000ED91FC91179715968C919F01280F311D65
:1025D000C9011192E817F907E1F70895FC0191E0AC
:1025E0008381861708F490E031E0461708F030E068
:1025F000832F892B21E05281451708F420E02823FE
:10260000832F8923822B0895DC01FB01108212960F
:102610008C911297818315968C91159781508283A6
:1026200013968C9183830895FB013181238121309E
:1026300019F0233021F006C048E0430F04C0432FB7
:10264000385001C0432F632F0E94EE120895FC0101
:10265000CB01BA012681378145810E94120D089570
:10266000DC011696ED91FC91179712968C91481B00
:10267000477081E090E002C0880F991F4A95E2F709
:10268000E60FF11D222321F09081892B808308958C
:1026900080959081892380830895FB014181FC010D
:1026A0002281421770F02381241758F0FB013081FA
:1026B000FC012581321728F4FB012481632F0E943D
:1026C00030130895DF92EF92FF920F931F93CF93F1
:1026D000DF937C01EB011A818B81813049F028F076
:1026E000823051F0833059F00EC0D12C01E00DC082
:1026F000DD24D39400E009C0D12C0FEF06C0DD2407
:10270000DA9400E002C0D12C00E0112324F4BE01D1
:10271000C7010E944D139881900F988399819D0D58
:102720009983110F91F7DF91CF911F910F91FF9036
:10273000EF90DF9008950F931F93CF93DF93FB01EA
:10274000C281D38150E0FA017497E433F105C8F5F2
:102750008901EC5CFF4F0C944F16B901CE010E9429
:102760001413882381F1B801CE010E94621381E025
:102770002BC0B901CE010E944D1381E025C0CE01CE
:102780000E94DE12CE010E94C11281E01DC0CE0166
:102790000E94C8128823C1F0CE010E94DE1281E09F
:1027A00013C0B901CE010E94041381E00DC08D81D8
:1027B000F901808381E008C08981F901808381E08B
:1027C00003C081E001C081E0DF91CF911F910F91A3
:1027D000089508951F920F920FB60F9211242F9310
:1027E0008F939F93EF93FF938091C0002091C60039
:1027F0008871E091B901EF5FEF719091B801E9172D
:1028000039F0E093B901F0E0E454FE4F208301C0B9
:1028100082E08093B701FF91EF919F918F912F916B
:102820000F900FBE0F901F9018951F920F920FB62A
:102830000F9211248F939F93EF93FF939091BB017D
:102840008091BA01981769F0E091BA01EF5FEF71DA
:10285000E093BA01F0E0E452FE4F80818093C6001D
:1028600005C0E1ECF0E080818F7D8083FF91EF91E6
:102870009F918F910F900FBE0F901F9018955058F9
:10288000BB27AA270E9457140C94A8150E949A15DA
:1028900038F00E94A11520F039F49F3F19F426F476
:1028A0000C9497150EF4E095E7FB0C949115E92F25
:1028B0000E94B91558F3BA17620773078407950782
:1028C00020F079F4A6F50C94DB150EF4E0950B2EB0
:1028D000BA2FA02D0B01B90190010C01CA01A00172
:1028E0001124FF27591B99F0593F50F4503E68F1CD
:1028F0001A16F040A22F232F342F4427585FF3CF0E
:10290000469537952795A795F0405395C9F77EF4DE
:102910001F16BA0B620B730B840BBAF09150A1F027
:10292000FF0FBB1F661F771F881FC2F70EC0BA0FAD
:10293000621F731F841F48F4879577956795B79535
:10294000F7959E3F08F0B0CF9395880F08F0992730
:10295000EE0F9795879508950E94C0140C94A815C2
:102960000E94A11558F00E949A1540F029F45F3F8B
:1029700029F00C94911551110C94DC150C949715B9
:102980000E94B91568F39923B1F3552391F3951B70
:10299000550BBB27AA2762177307840738F09F5F80
:1029A0005F4F220F331F441FAA1FA9F335D00E2EED
:1029B0003AF0E0E832D091505040E695001CCAF75A
:1029C0002BD0FE2F29D0660F771F881FBB1F26171D
:1029D00037074807AB07B0E809F0BB0B802DBF01F4
:1029E000FF2793585F4F3AF09E3F510578F00C94C3
:1029F00091150C94DC155F3FE4F3983ED4F3869573
:102A000077956795B795F7959F5FC9F7880F911DE3
:102A10009695879597F90895E1E0660F771F881FCF
:102A2000BB1F621773078407BA0720F0621B730B82
:102A3000840BBA0BEE1F88F7E09508950E942515C8
:102A40006894B1110C94DC1508950E94C11588F0AA
:102A50009F5798F0B92F9927B751B0F0E1F0660F62
:102A6000771F881F991F1AF0BA95C9F714C0B130A3
:102A700091F00E94DB15B1E008950C94DB15672FEF
:102A8000782F8827B85F39F0B93FCCF386957795D2
:102A90006795B395D9F73EF49095809570956195BB
:102AA0007F4F8F4F9F4F0895E89409C097FB3EF4E6
:102AB00090958095709561957F4F8F4F9F4F99238B
:102AC000A9F0F92F96E9BB279395F6958795779509
:102AD0006795B795F111F8CFFAF4BB0F11F460FFC9
:102AE0001BC06F5F7F4F8F4F9F4F16C0882311F021
:102AF00096E911C0772321F09EE8872F762F05C035
:102B0000662371F096E8862F70E060E02AF09A95CF
:102B1000660F771F881FDAF7880F9695879597F9C4
:102B2000089597F99F6780E870E060E008959FEF4F
:102B300080EC089500240A94161617061806090654
:102B4000089500240A941216130614060506089523
:102B5000092E0394000C11F4882352F0BB0F40F4AB
:102B6000BF2B11F460FF04C06F5F7F4F8F4F9F4FEB
:102B7000089557FD9058440F551F59F05F3F71F06D
:102B80004795880F97FB991F61F09F3F79F08795D4
:102B90000895121613061406551FF2CF4695F1DF5D
:102BA00008C0161617061806991FF1CF86957105ED
:102BB000610508940895E894BB2766277727CB0121
:102BC00097F908950E94F5150C94A8150E949A157E
:102BD00038F00E94A11520F0952311F00C94911566
:102BE0000C94971511240C94DC150E94B91570F300
:102BF000959FC1F3950F50E0551F629FF001729FA2
:102C0000BB27F00DB11D639FAA27F00DB11DAA1FB0
:102C1000649F6627B00DA11D661F829F2227B00DFD
:102C2000A11D621F739FB00DA11D621F839FA00D88
:102C3000611D221F749F3327A00D611D231F849FD8
:102C4000600D211D822F762F6A2F11249F5750402F
:102C50009AF0F1F088234AF0EE0FFF1FBB1F661FAA
:102C6000771F881F91505040A9F79E3F510580F073
:102C70000C9491150C94DC155F3FE4F3983ED4F36B
:102C8000869577956795B795F795E7959F5FC1F717
:102C9000FE2B880F911D9695879597F90895EE0F55
:102CA000FF1F0590F491E02D0994EF920F931F936D
:102CB000CF93DF93E80147FD02C034E001C034E167
:102CC000E42F440FFF0BF7FF03C0F195E195F109E5
:102CD000E32E022F2E2FAE010E947516CE01DF913A
:102CE000CF911F910F91EF9008954F925F926F9245
:102CF0007F929F92AF92BF92CF92DF92EF92FF921C
:102D00000F931F93CF93DF93CDB7DEB729970FB6FD
:102D1000F894DEBF0FBECDBF6A01122FB02E2BE399
:102D2000201720F0FF24F394F00E02C0BCE3FB2E2A
:102D30000F2D27E0AE014F5F5F4F0E940318AC01DB
:102D40008981982F9970913031F0E1FC06C0E0FE46
:102D500006C090E205C09DE203C09BE201C090E086
:102D6000EE2DE07183FF3CC0911102C083E001C0F1
:102D700084E0811718F4212F281B01C020E0E11105
:102D80000BC0F601822F30E2882319F03193815075
:102D9000FBCFC20ED11C20E0992329F0D6019C93D1
:102DA000F60131966F01C6010396E2FE0AC03EE4C9
:102DB000D6013C9341E411964C93119712963C93A3
:102DC00006C03EE6F601308341E641833283FC01D2
:102DD000322F40E2332309F442C041933150FACFFD
:102DE00082FF44C0911102C083E001C084E08117DA
:102DF00018F4212F281B01C020E0E1110BC0F601BF
:102E0000822F30E2882319F031938150FBCFC20E1C
:102E1000D11C20E0992329F0D6019C93F60131962C
:102E20006F01C6010396E2FE0BC039E4D6013C9364
:102E30003EE411963C93119736E412963C9307C0FA
:102E400039E6F60130833EE6318336E63283FC0113
:102E5000322F40E2332319F041933150FBCFFC0174
:102E6000E20FF11D10828EEF9FEFB7C0F1E09111DC
:102E700001C0F0E06F2F70E01416150624F49A01DB
:102E80002F5F3F4F02C021E030E0260F371FBB20ED
:102E900029F06B2D70E06F5F7F4F02C060E070E043
:102EA000260F371F612F70E0261737071CF4121BFF
:102EB000212F01C020E03E2D387159F4D601322F68
:102EC00060E2332319F06D933150FBCFC20ED11C59
:102ED00020E0FF2331F0D6019C93B6016F5F7F4F56
:102EE0006B01E1110BC0F601922F30E3992319F029
:102EF00031939150FBCFC20ED11C20E09F2D940F37
:102F00003A81782F7071A72E84FF03C0313309F402
:102F10009150191624F4993018F098E001C091E00E
:102F2000E42F852F57FF02C0E0E080E06E2F782F5E
:102F3000E0E0F0E0AEE29A2E3A01691A71082A0147
:102F4000461A570A0B2D10E01195019511096F3F94
:102F50008FEF780729F4D6019C92C60101966C0187
:102F60004617570784F0661677066CF47F01E40C69
:102F7000F51CA1E0B0E0AC0FBD1FEA0EFB1ED701AF
:102F80001196BC9002C090E3B92E61507109319640
:102F9000C60101967C016017710724F0D601BC922E
:102FA0006C01D5CF6417750741F4363320F43533FF
:102FB00021F4A11002C081E3B82EF601B082F7011E
:102FC000822F90E2882319F091938150FBCFF70173
:102FD000E20FF11D108280E090E029960FB6F89480
:102FE000DEBF0FBECDBFDF91CF911F910F91FF903C
:102FF000EF90DF90CF90BF90AF909F907F906F90B9
:103000005F904F900895283008F027E03327DA01C9
:10301000990F311D87FD916000966105710539F4A6
:1030200032602E5F3D9330E32A95E1F708959F3F8C
:1030300030F080387105610509F03C5F3C5F3D93DD
:10304000913008F08068911DDF93CF931F930F9309
:10305000FF92EF92192F987F9695E92F9695969566
:10306000E90FFF27E65DFE4F99273327EE24FF2463
:10307000A701E70105900894079428F4360FE71E8E
:10308000F81E491F511D660F771F881F991F069450
:10309000A1F70590079428F4E70EF81E491F561F64
:1030A000C11D770F881F991F661F0694A1F7059011
:1030B000079428F4F80E491F561FC71FD11D880F0B
:1030C000991F661F771F0694A1F70590079420F4B7
:1030D000490F561FC71FD81F990F661F771F881FDC
:1030E0000694A9F784911095177041F0D695C7956D
:1030F00057954795F794E7941A95C1F7E0EDF0E0FE
:1031000068941590159135916591959105907FE2A0
:103110007395E118F10A430B560BC90BD009C0F7A0
:10312000E10CF11E431F561FC91FD01D7EF47033E2
:1031300011F48A95E6CFE894015030F0080F0AF4B4
:103140000027021708F4202F2395022F7A3328F046
:1031500079E37D932A95E9F710C07D932A9589F646
:10316000069497956795379517951794E118F10A86
:10317000430B560BC90BD00998F023957E9173959C
:103180007A3308F070E37C932013B8F77E91706176
:103190007D9330F0839571E37D9370E32A95E1F799
:1031A0001124EF90FF900F911F91CF91DF919927FC
:0A31B00087FD90950895F894FFCF75
:1031BA000C0F0601B00D0840000000803701000026
:1031CA000000000043616C6962726174696E672E67
:1031DA002E2E0043616C69622E20646F6E65004971
:0431EA00646C6500AC
:00000001FF
