S01400006D70755F636F6E6E746573742E73726563F1
S11300000C94D70B0C94F40B0C94F40B0C94F40B8D
S11300100C94F40B0C94F40B0C94F40B0C94F40B60
S11300200C94F40B0C94F40B0C94F40B0C94F40B50
S11300300C94F40B0C94F40B0C94F40B0C94F40B40
S11300400C94F40B0C94F40B0C94D2150C94FD1535
S11300500C94F40B0C94F40B0C94F40B0C94F40B20
S11300600C94F40B0C94F40BA715AF15C915B91522
S1130070C915C915C915C915C915C915C915C9158C
S1130080C915C915C915C915C915C915C915C9157C
S1130090C915C915C915C915C915C915C915C9156C
S11300A0C915C915A115C915C915C915C915C91584
S11300B0C915C915C9159515C915C915C915C91580
S11300C0C915C915C915C915C915C915BF15C4154B
S11300D0FFE0FFD1AFFF32FFD0FFFEFFE0FFD1AE64
S11300E0FFD0FFFEFFE0FFD11000FFFEFFD0FFE0D6
S11300F0FFC1FFD1AED580A83FD300408D142000AE
S1130100A1C8DA1281CFD9F1DB402EA4A6AFFFD06B
S1130110FFFE001F1AFEFB0E0374075F20FFFC1591
S1130120FB0EFC000000060000030E0E080300E0B6
S1130130E0E0E0E0E0E0E0E0E00000E0E008060607
S11301400A0108E767676767670C0E1C0E01000663
S11301506006600C603FF03FF018C019801980FF02
S1130160E0FFE033003300630066000A11220C0153
S1130170FE04001F007F807780E5C0E400FC007E61
S1130180001F8007C005C0E5C0E5C07F803F0004B4
S1130190000400120E2A1401003C04007E0C00C36B
S11301A01800C31000C33000E760007E670018CD5C
S11301B0800098C00198C00318C00318C0060F80BF
S11301C00C07000E0E1C1001001F007F8071C0710F
S11301D0C073803F001E007E38F730E3B0E1F0E0EA
S11301E0E07FF01FBC030606080308E0C0C0C0C0DF
S11301F0C00411110802FD30707060E0E0E0E0E03E
S1130200E0E0E0E0607070300411110802FDC0C04D
S1130210E0E0606070707070706060E0E0C0C00822
S113022007070C0207663C18FF183C660C0C1814F0
S1130230040002000200020002000200FFF0FFF0CE
S1130240020002000200020002000405050601FE8D
S1130250707060E0C0050303070104F8F8F80303B5
S113026003060200E0E0E0060F0F0901FF0C0C0C8E
S11302700C18181830303060606060C00A0E1C0B17
S113028001001E007F006180E1C0E1C0E1C0E1C067
S1130290E1C0E1C0E1C0E1C061807F801E00060EC4
S11302A00E0B02001C7CFCDC1C1C1C1C1C1C1C1CDF
S11302B01C1C0A0E1C0B01001F007F8061C0E1C0E2
S11302C001C001C0038007800F001E0038007000C9
S11302D0FFC0FFC00A0E1C0B01003E007F00E3803C
S11302E0038003801F001F00038001C001C0E1C020
S11302F0F3807F003E000B0E1C0B010007800F8073
S11303000F801B803B80338073806380E380FFE039
S1130310FFE00380038003800A0E1C0B0100FF80B2
S1130320FF80E000E000E000FF00FF80E18001C00A
S113033001C0E1C0E3807F003E000A0E1C0B0100F7
S11303401E003F8061806000E000DF00FF80E180EC
S1130350E1C0E1C0E1C061807F801E000A0E1C0B79
S11303600100FFC0FFC001C00380038007800700B5
S113037007000E000E001C001C003C0038000A0E92
S11303801C0B01003F007F80E1C0E1C0E1807F00E1
S11303903F007380E1C0E1C0E1C0E1C07F803F0065
S11303A00A0E1C0B01001E007F00E180E180E1C009
S11303B0E1C0F3C07FC019C00180E18063807F0089
S11303C03E00030A0A070300E0E0E000000000E04A
S11303D0E0E0040C0C0601FE707070000000007078
S11303E060E0C0C00C0A14140401001000E0038093
S11303F01C00E000C0003800070001C000300C05FC
S11304000A140403FFF0FFF00000FFF0FFF00C0AF1
S113041014140401800070001C000380007000307C
S113042001C00E003800C000090E1C0B01003E0084
S11304307F00C38043800380070006000C0018007F
S1130440180018000000180018001312361501FCDB
S113045001F8000FFE001E07803803C071FDC07351
S1130460FCE0E71CE0E71CE0E71CE0E71CE0E71C1D
S1130470E0E73CC073FFC071E7803800001E040051
S11304800FFC0003FC000E0E1C0E0000078007800A
S113049007C00FC00EC01CE01CE01C6038703FF0A9
S11304A03FF870387038E01C0B0E1C0D0100FF0083
S11304B0FF80E1C0E1C0E1C0E380FF00FF80E0C055
S11304C0E0E0E0E0E0E0FFC0FF000D0E1C0F0100E3
S11304D00F803FE070706070E000E000E000E0003A
S11304E0E000E078607070F03FE00F800C0E1C0EAE
S11304F00100FF00FFC0E1E0E0E0E070E070E070C8
S1130500E070E070E070E0E0E1E0FFC0FF000A0EA0
S11305101C0C0100FFC0FFC0E000E000E000E000B0
S1130520FF80FF80E000E000E000E000FFC0FFC0CB
S1130530090E1C0B0100FF80FF80E000E000E000DA
S1130540E000FF80FF80E000E000E000E000E00069
S1130550E0000D0E1C0F01000FC01FF0383870387A
S1130560E000E000E1F8E1F8E038E038703878388D
S11305703FF80FF00C0E1C0E0100E070E070E0700C
S1130580E070E070E070FFF0FFF0E070E070E070A9
S1130590E070E070E070030E0E050100E0E0E0E0C2
S11305A0E0E0E0E0E0E0E0E0E0E00A0E1C0C010046
S11305B001C001C001C001C001C001C001C001C02F
S11305C001C0E1C0E1C0F3C07F803E000B0E1C0DF2
S11305D00100E1E0E3C0E380E700EE00FC00FC0082
S11305E0FE00EE00E700E780E3C0E1C0E0E00A0EB1
S11305F01C0B0100E000E000E000E000E000E0008F
S1130600E000E000E000E000E000E000FFC0FFC028
S1130610100E1C120100F81FF81FFC3FFC3FFC37B2
S1130620EC77EE77EE67E6E7E7E7E7C7E3C7E3C70C
S1130630E3870D0E1C0F0100F038F838F838FC3849
S1130640EE38EE38E738E738E3B8E3B8E1F8E1F834
S1130650E0F8E0F80E0E1C1001000FC03FF07070BF
S11306606038E018E01CE01CE01CE01CE018603876
S113067070703FF00FC00B0E1C0D0100FF00FFC097
S1130680E1C0E0E0E0E0E0E0E1C0FFC0FF00E00046
S1130690E000E000E000E0000F0E1C1101000FC0BC
S11306A03FE070706038E018E01CE01CE01CE01CC7
S11306B0E018603870783FFE0FFE0B0E1C0D010031
S11306C0FF80FFC0E0E0E0E0E0E0E0E0FF80FFC0AA
S11306D0E1C0E0E0E0E0E0E0E0E0E0600C0E1C0EF1
S11306E001001F803FC060E0E0E0E000FC007F808C
S11306F01FE003E00070E070E0607FC01F800C0E1C
S11307001C0E0100FFF0FFF00E000E000E000E00A4
S11307100E000E000E000E000E000E000E000E0065
S11307200C0E1C0E0100E070E070E070E070E070F0
S1130730E070E070E070E070E070E07070E03FC086
S11307401F800E0E1C0F0000F01C701C703C38380B
S1130750383838701C701C701EE00EE00FC007C0E3
S113076007C00780140E2A140000F0F0F070F0E0C7
S113077070F0E071F8E071F8E03999C03999C03B44
S11307809DC03B9DC01B0D801F0F801F0F801F0F3E
S1130790800E07000C0E1C0E0100E07070E078E083
S11307A039C01F801F000F000F001F803BC039C0DD
S11307B070E0E0F0E0700C0E1C0D0000F07070F0C2
S11307C038E038E01DC01DC00F800F00070007008F
S11307D007000700070007000B0E1C0D01007FE057
S11307E07FE001E003C0038007800F001E001E00AD
S11307F03C007800F800FFE0FFE00512120802FC5C
S1130800F8F8E0E0E0E0E0E0E0E0E0E0E0E0E0E0B4
S1130810F8F8060F0F0901FFC0C060606030303087
S1130820101818180C0C0C0512120802FCF8F838F1
S113083038383838383838383838383838F8F80AE2
S11308400C181405000C000C000C001200120033EC
S1130850002100210040804080C0C080400A020482
S11308600A00FDFFC0FFC005040405FF0CE0703062
S113087018090A140B01003E007F80E3801F807F6B
S113088080E380E380E380FF8039800A0E1C0C0142
S113089000E000E000E000E000EF00FF80E1C0E1E4
S11308A0C0E1C0E1C0E1C0E180FF80EF00090A14AB
S11308B00B01003E007F00E380E380E000E000E302
S11308C080E3807F003E000A0E1C0C010001C00181
S11308D0C001C001C03DC07FC0E1C0E1C0E1C0E1D2
S11308E0C0E1C0E1C07FC03DC0090A140B01001E75
S11308F0007F00E380E380FF80FF80E000E3807FEF
S1130900803E00070E0E0801001E3E3838FEFE38F9
S1130910383838383838380A0E1C0C01FC3DC07F92
S1130920C071C0E1C0E1C0E1C0E1C0E1C07FC03D31
S1130930C001C061C07F803F00090E1C0B0100E0B4
S113094000E000E000E000EF00FF80E380E380E3EC
S113095080E380E380E380E380E380030E0E0501FF
S113096000E0E0E000E0E0E0E0E0E0E0E0E0E0041F
S113097012120702FC7070700070707070707070EA
S11309807070707070F0E0090E1C0B0100E000E064
S113099000E000E000E780E700EE00FC00FC00FC63
S11309A000EE00E700E700E380030E0E050100E01F
S11309B0E0E0E0E0E0E0E0E0E0E0E0E0E00F0A14A6
S11309C0120100EF3CFFFEE3CEE386E386E386E319
S11309D086E386E386E386090A140B0100EF00FF31
S11309E080E380E380E380E380E380E380E380E3EB
S11309F0800A0A140C01001E007F806180E1C0E1BE
S1130A00C0E1C0E1C061807F801E000A0E1C0C01A1
S1130A10FCEF00FF80E180E1C0E1C0E1C0E1C0E1A2
S1130A20C0FF80EF00E000E000E000E0000A0E1CE0
S1130A300C01FC3DC07FC0E1C0E1C0E1C0E1C0E108
S1130A40C0E1C07FC03DC001C001C001C001C006FB
S1130A500A0A080100ECFCF0E0E0E0E0E0E0E00974
S1130A600A140B01003E00FF00E380E0007E001F3B
S1130A70000380E380FF003E00070D0D090100081C
S1130A803838FEFE3838383838383E1E090A140B18
S1130A900100E380E380E380E380E380E380E3809C
S1130AA0E380FF807B800B0A140B0000E0E071C040
S1130AB071C031803B803B801B001F001F000E0073
S1130AC0110A1E110000E1C38061E30073E70073A3
S1130AD067003377003F76003F3E003E3E001E3CF9
S1130AE0001E1C00090A140B0100E3807300770048
S1130AF03E001C003E003E007700E380E3800B0EC6
S1130B001C0B00FCE0E071C071C039803B803B806D
S1130B101F001F000F000E000E000E001C001C0022
S1130B20080A0A0A0100FFFF070E1C3870E0FFFFE5
S1130B300713130A02FB0E3E383838383830F0C039
S1130B40F07038383838383E0E0115150703FB802D
S1130B508080808080808080808080808080808091
S1130B60808080800713130A02FBE0F0383838389D
S1130B7038381C061C383838383838F0E00B03068F
S1130B800B000430607FC0C780FFFFFFFFFFFFFF43
S1130B90FFFFFFFFFFFFFFFFFFFFFFFFFFFFFFFF61
S1130BA0FFFFFFFFFFFFFFFFFFFF00000006000045
S1130BB0030E0E0903FCE0E00000E0E0E0E0E0E00A
S1130BC0E0E0E0E0090E1C0B01FE020002003E0022
S1130BD07F00E780E780E800E800EB80F3807F0097
S1130BE03E00200020000A0E1C0C01001F003FC024
S1130BF071C070007000FE00FE0070007000700094
S1130C0070007000FFC0FFC00A0A140C010380408A
S1130C105E802100408040804080408021005E80D2
S1130C2080400B0E1C0D0100E0E0E1C071C071803A
S1130C30FBE0FBE01F00FFE0FFE00E000E000E00F3
S1130C400E000E000112120703FC80808080808059
S1130C508080000080808080808080800812120A5A
S1130C6001FC3E7EE0E0703C7EE7E7E7FE7C1E0789
S1130C700787FE3807020207000CEEEE0F0E1C1168
S1130C80010007C01FF037986FCCCCE49C029C0293
S1130C909CE28CE2CFC6478420181C700FC0070961
S1130CA00908010578CC7CCCCCFC2400FE0A081091
S1130CB00C010139C071807380E700E70073807113
S1130CC08039C00B050A0D0104FFE0FFE00020009D
S1130CD0200020FF0F0E1C11010007C01FF03F98D9
S1130CE06FECCC648C628FC28FC28C62CC664C6415
S1130CF020181C700FC006020206000CFCFC05053F
S1130D000507010970888888700C0C181404000207
S1130D100002000200FFF0FFF002000200020000E7
S1130D20000000FFF0FFF006080808010678CC0C6C
S1130D301830E0FCFC06070708010778CC0C300CDF
S1130D40CC7804040404010C306060C0FF09112253
S1130D500B01FD3F807900F900F900F900F90079F1
S1130D600009000900090009000900090009000937
S1130D700009000900030303060205E0E0E005059D
S1130D80050501FB40701818F00408080601063038
S1130D90F03030303030300709090901053844C6D5
S1130DA0C6C6443800FE0A08100C0101E70063803F
S1130DB0738039C039C073806380E7000E0E1C1045
S1130DC001007030F030306030C030C03180319C70
S1130DD0333C063C066C0CCC18FC180C300C0F0E83
S1130DE01C1101007030F020306030C030C0318000
S1130DF0333C336606060C0E0C1C1830307E307EF5
S1130E000E0E1C1001007818CC300C3030600CC071
S1130E10CCC0799C01BC033C066C06CC0CFC080CD1
S1130E20180C090E1C0B01FC0E000E0000000E0035
S1130E300E000E003C007000E000E000E180E18064
S1130E407F803E000E14280E00000C000E000600E9
S1130E500300000000000780078007C00FC00EC019
S1130E601CE01CE01C6038703FF03FF870387038AC
S1130E70E01C0E14280E000000C001C00180030015
S1130E80000000000780078007C00FC00EC01CE0F0
S1130E901CE01C6038703FF03FF870387038E01C7C
S1130EA00E14280E00000380078006C00CC000004A
S1130EB000000780078007C00FC00EC01CE01CE0C4
S1130EC01C6038703FF03FF870387038E01C0E1327
S1130ED0260E000006400FC00880000000000780B6
S1130EE0078007C00FC00EC01CE01CE01C603870F7
S1130EF03FF03FF870387038E01C0E13260F0000E6
S1130F000EE00EE00000000000000380078007C030
S1130F1007C00EC00EE01CE01C701C703FF83FF8C8
S1130F207038701CE01C0D152A0F010007000880A2
S1130F300880088007000000000007000F800F8071
S1130F401DC01DC01DC038E038E030607FF07FF068
S1130F50E038E038E038130E2A14000000FFE00106
S1130F60FFE003F0000370000770000770000E7FBD
S1130F70C00E7FC01C70001FF0003FF000707000B6
S1130F80707FE0E07FE00D12240F01FC0F803FE052
S1130F9070F06070E000E000E000E000E000E07865
S1130FA0607070F03FE01F800400078001800F0034
S1130FB00A14280C01003000380018000C0000004E
S1130FC00000FFC0FFC0E000E000E000E000FF80A0
S1130FD0FF80E000E000E000E000FFC0FFC00A1472
S1130FE0280C0100070006000C00080000000000A7
S1130FF0FFC0FFC0E000E000E000E000FF80FF80F1
S1131000E000E000E000E000FFC0FFC00A14280C8C
S113101001001C001E003600230000000000FFC079
S1131020FFC0E000E000E000E000FF80FF80E0009F
S1131030E000E000E000FFC0FFC00A13260C01003E
S113104077007700000000000000FFC0FFC0E00050
S1131050E000E000E000FF80FF80E000E000E0004E
S1131060E000FFC0FFC005141405FF00E06030106D
S1131070000038383838383838383838383838385C
S1131080041414050100307060C00000E0E0E0E0EA
S1131090E0E0E0E0E0E0E0E0E0E00514140500005A
S11310A07070D8880000707070707070707070709C
S11310B070707070071313070000EEEE0000003824
S11310C0383838383838383838383838380D0E1C0D
S11310D00E00007F807FE070F0707070387038FE12
S11310E038FE3870387038707070F07FE07F800D93
S11310F013260F01000C401F80110000000000F0B7
S113110038F838F838FC38EE38EE38E738E738E3A2
S1131110B8E3B8E1F8E1F8E0F8E0F80E14281001BB
S1131120001C000C0006000200000000000FC03F7D
S1131130F070706038E018E01CE01CE01CE01CE07B
S113114018603870703FF00FC00E142810010000B2
S1131150E001C001800300000000000FC03FF070F8
S1131160706038E018E01CE01CE01CE01CE0186033
S11311703870703FF00FC00E1428100100070007EC
S1131180800DC008C0000000000FC03FF070706008
S113119038E018E01CE01CE01CE01CE0186038702B
S11311A0703FF00FC00E132610010007C00FC000DF
S11311B000000000000FC03FF070306038E018E01D
S11311C01CE01CE01CE01CE018703878F03FF00FC5
S11311D0C00E13261001001DC01DC0000000000039
S11311E0000FC03FF070706038E018E01CE01CE0B5
S11311F01CE01CE018603870703FF00FC00A0A143D
S11312001405018040C0C0618033000C000C001242
S1131210002100408080400F10201000FF000207D2
S1131220E61FFC383C303C706C70EE71CE738E77E8
S11312300E7E0C7C1C38383FF0EFE040000C142884
S11312400E0100380018000C00060000000000E049
S113125070E070E070E070E070E070E070E070E00A
S113126070E070E07071E03FC01F800C14280E0124
S11312700001C003800300060000000000E070E0ED
S113128070E070E070E070E070E070E070E070E0DA
S113129070E07071E03FC01F800C14280E01000E36
S11312A0000F001B00118000000000E070E070E0FF
S11312B070E070E070E070E070E070E070E070E0AA
S11312C07071E03FC01F800C13260E01001DC01D6D
S11312D0C0000000000000E070E070E070E070E02A
S11312E070E070E070E070E070E070E07070E03F1B
S11312F0C01F800C13260D000001800300020000B3
S1131300000000F07070F038E038E01DC01DC00F20
S1131310800F000700070007000700070007000B05
S11313200E1C0D0100E000E000FF00FFC0E1C0E082
S1131330E0E0E0E0E0E1C0FF80FE00E000E000E08B
S1131340000A0E1C0C01003E007F80E380E380E372
S113135000E700EE00EE00E780E3C0E1C0FDC0FF5F
S1131360C0EF800910200B01007000300018000845
S113137000000000003E007F80E3801F807F80E348
S113138080E380E380FF8039800910200B0100078F
S11313900006000C000C00000000003E007F80E30B
S11313A08003803F80FB80E380E380FF80798009B5
S11313B010200B01001C001E00360023000000005A
S11313C0003E007F80E3801F807F80E380E380E332
S11313D080FF803980090E1C0B01003F003E000095
S11313E00000003E007F80E3801F807F80E380E375
S11313F080E380FF803980090F1E0B01007700779E
S1131400000000000000003E007F80E3801F807F1A
S113141080E380E380E380FF8039800911220B019F
S1131420001C002200220022001C00000000003EDC
S1131430007F80E3801F807F80E380E380E380FF80
S1131440803980100A141201003E7C7FFEE3871F5E
S1131450FF7FFFE380E380E3C7FEFE3C7C090E1CB4
S11314600B01FC3E007F00E380E380E000E000E34A
S113147080E3807F003E0010001E0006003E00094D
S113148010200B010070003000180008000000005C
S1131490001E007F00E380E380FF80FF80E000E324
S11314A0807F803E000910200B0100070006000C1D
S11314B0000800000000001E007F00E380E380FFBE
S11314C080FF80E000E3807F803E000910200B0154
S11314D0001C001E0036002300000000001E007FD8
S11314E000E380E380FF80FF80E000E3807F803EB4
S11314F000090F1E0B0100770077000000000000B8
S1131500001E007F00E380E380FF80FF80E000E3B3
S1131510807F803E00040F0F050000C0E0603000B3
S113152070707070707070707070040F0F04010030
S11315307060C08000E0E0E0E0E0E0E0E0E0E007D0
S11315400F0F05FF00387C4CC6003838383838385F
S113155038383838070E0E060000EEEE0000383832
S113156038383838383838380A0E1C0C01003980BD
S11315700F001F0063001F807F8061C0E1C0E1C0D5
S1131580E1C0E1C061C07F801F00090E1C0B010097
S11315903E003C0000000000EF00FF80E380E38099
S11315A0E380E380E380E380E380E3800A10200C9F
S11315B001003000180018000C00000000001E009C
S11315C07F806180E1C0E1C0E1C0E1C061807F80D3
S11315D01E000A10200C01000300060006000C0087
S11315E0000000001E007F806180E1C0E1C0E1C016
S11315F0E1C061807F801E000A10200C01000C00F5
S11316001E001A003300000000001E007F8061806D
S1131610E1C0E1C0E1C0E1C061807F801E000A0E2C
S11316201C0C01001F003E00000000001E007F8013
S11316306180E1C0E1C0E1C0E1C061807F801E0043
S11316400A0F1E0C01003B803B80000000000000DC
S11316501E007F806180E1C0E1C0E1C0E1C0618023
S11316607F801E000C081014040206000E00000007
S1131670FFF0FFF0000006000E000A0C180C010039
S113168000C01F807F806380E7C0EDC0E9C0F1C067
S113169071807F80DE0080000910200B0100700043
S11316A030001800080000000000E380E380E380BD
S11316B0E380E380E380E380E380FF807B800910A4
S11316C0200B0100070006000C00080000000000C9
S11316D0E380E380E380E380E380E380E380E380EE
S11316E0FF807B800910200B01001C001C003600C9
S11316F0220000000000E380E380E380E380E380D5
S1131700E380E380E380FF807B80090F1E0B0100F0
S113171077007700000000000000E380E380E380AE
S1131720E380E380E380E380E380FF807B800B132E
S1131730260B00FC0180030002000400000070E09E
S113174071C071C039C03B801B801F801F000F0017
S11317500E000E004E00FC0078000A12240C01FC5E
S1131760E000E000E000E000EF00FF80E180E1C085
S1131770E1C0E1C0E1C0E1C0FF80FF00E000E000A3
S1131780E000E0000B12240B00FC3B803B800000D7
S11317900000E1E071C071C073803B803B801F009A
S11317A01F001F000E000E000C001C001C00112462
S11317B01FBECFEFD8E0DEBFCDBF11E0A0E0B1E0A7
S11317C0EAEEFFE202C005900D92AE30B107D9F700
S11317D022E0AEE0B1E001C01D92AD30B207E1F706
S11317E00E94F70C0C94F3170C9400001092B900AB
S11317F080E28093B800089594EA9093BC004FEF80
S113180050E060E070E0ECEBF0E09081992334F07C
S11318104150510961097109C0F704C0452B462B99
S1131820472B41F19091B900987F983011F0903195
S113183019F58093BB0084E88093BC008FEF90E09F
S1131840A0E0B0E0ECEBF0E0208122232CF0019743
S1131850A109B109C8F704C0892B8A2B8B2B71F01D
S11318609091B900987F983159F081E0903449F40F
S113187080E0089581E0089581E0089581E008956D
S113188080E0089584E98093BC0080E090E0ECEB74
S1131890F0E0208124FF05C00196811521E0920724
S11318A0C1F708958093BB0084E88093BC008FEF58
S11318B090E0A0E0B0E0ECEBF0E0208122232CF0FB
S11318C00197A109B109C8F704C0892B8A2B8B2B76
S11318D041F09091B900987F81E0983219F480E04A
S11318E0089581E0089584EC8093BC008FEF90E02C
S11318F0A0E0B0E0ECEBF0E0208122232CF0019793
S1131900A109B109C8F704C0892B8A2B8B2B19F0C4
S11319108091BB00089580E0089584E88093BC0022
S11319208FEF90E0A0E0B0E0ECEBF0E02081222328
S11319302CF00197A109B109C8F704C0892B8A2B9F
S11319408B2B19F08091BB00089580E00895CF930C
S1131950DF93C82F80ED0E94FC0B8C2F0E94520C49
S11319608AE18A95F1F700C081ED0E94FC0B0E9488
S1131970730CD82F0E948D0CC82F0E94420C6C2F20
S113198070E07D2B072E000C880B990B0E94961695
S113199020E030E040E858E30E942717DF91CF9120
S11319A00895CF93DF9300D000D0CDB7DEB719826E
S11319B01A821B821C824AE0BE016F5F7F4F0E9425
S11319C0BE1762E171E086ED91E00E945E139E0114
S11319D02F5F3F4F40E162E086ED91E00E94D2121A
S11319E00F900F900F900F90DF91CF91089540E0EA
S11319F060E071E086ED91E00E946B1478940E949F
S1131A00560E2FE788E391E0215080409040E1F7A3
S1131A1000C00000C0E0D0E08BE390E00E94A70C7F
S1131A206B017C018DE390E00E94A70CE894F7F829
S1131A309B01AC015F77C701B6010E9428166B01B8
S1131A407C018FE390E00E94A70C9B01AC015F77BF
S1131A50C701B6010E94281620E030E040E050E4BF
S1131A600E942217181674F4219686ED91E00E94C4
S1131A708114CE010E94D10C86ED91E00E9487145E
S1131A808111F7CF21962FEF89E698E1215080400C
S1131A909040E1F700C00000BFCFAF92BF92DF9249
S1131AA0EF92FF920F931F93CF93DF936623B9F1C5
S1131AB0C52FD42FD62E182F80ED0E94FC0B812F1A
S1131AC00E94520C8AE18A95F1F700C081ED0E94D0
S1131AD0FC0B0D2F1C2FEE24EA94ED0CF12CEFEFF0
S1131AE0EE1AFE0AC0E0D0E0AD2CB12CF1E0AF1A42
S1131AF0B108CA15DB0529F40E948D0CF801808316
S1131B0004C00E94730CF801808321960F5F1F4F5D
S1131B10CE15DF0571F7CD2D0E94420C01C0C0E047
S1131B208C2FDF91CF911F910F91FF90EF90DF9059
S1131B30BF90AF900895AB0161E00E944D0D0895F0
S1131B40EF92FF920F931F93CF93DF936623D1F00D
S1131B507A01162FC82F80ED0E94FC0B8C2F0E9457
S1131B60520CE7016FEF610F062F10E00F5F1F4F5C
S1131B700E0D1F1D89910E94520CC017D107D1F779
S1131B800E94420CDF91CF911F910F91FF90EF9033
S1131B900895CF93DF931F92CDB7DEB76983AE016B
S1131BA04F5F5F4F61E00E94A00D0F90DF91CF91D6
S1131BB00895EF92FF920F931F93CF93DF931F9299
S1131BC0CDB7DEB7442389F1F22E142F062FE82E69
S1131BD01982BE016F5F7F4F0E949B0D882329F1FC
S1131BE0402F50E0411B51094F5F5F4F81E090E06F
S1131BF002C0880F991F1A95E2F70197042E02C0BC
S1131C00880F991F0A94E2F72F2D30E002C0220FAB
S1131C10331F4A95E2F7682F6095998169238223DF
S1131C20682B69838E2D0E94C90D0F90DF91CF918F
S1131C301F910F91FF90EF900895FF920F931F93C0
S1131C40CF93DF931F92CDB7DEB7182F062FF42E54
S1131C50BE016F5F7F4F0E949B0DFF2059F021E072
S1131C6030E0B90102C0660F771F0A95E2F7898157
S1131C70682B0BC021E030E0B90102C0660F771F6A
S1131C800A95E2F76095998169236983812F0E94FF
S1131C90C90D0F90DF91CF911F910F91FF9008957F
S1131CA040E066E08BE60E941D0E08950E94F60B4C
S1131CB02AE12A95F1F700C08FEF90E722E08150E6
S1131CC090402040E1F700C000000E94500E8FE1D8
S1131CD09EE40197F1F700C0000021E043E062E0D8
S1131CE08BE60E94D90D23E043E062E08AE10E9482
S1131CF0D90D64E089E10E94C90D23E042E064E06B
S1131D008BE10E94D90D20E042E064E08CE10E9466
S1131D10D90D08950F93FC010150040F84A996A9CD
S1131D20941738F0081768F481E0041740F080E055
S1131D3006C00817D0F081E0041708F080E088237B
S1131D40C9F02150260F83A995A9961738F02817B2
S1131D5070F481E0261770F080E00CC0281748F07A
S1131D6081E0261738F080E005C080E003C081E000
S1131D7001C080E00F910895DB011496ED91FC9170
S1131D80159720E030E061E009950895DB01149691
S1131D90ED91FC91159720E030E063E009950895FA
S1131DA0DB011496ED91FC91159720E030E040E0C2
S1131DB064E009950895DB011496ED91FC91159763
S1131DC020E030E041E064E009950895DB011496D9
S1131DD0ED91FC91159720E030E062E009950895BB
S1131DE0DB011496ED91FC91159720E030E065E05D
S1131DF009950895DB011496ED91FC91159766E021
S1131E0009950895AF92BF92CF92DF92EF92FF921D
S1131E100F931F93CF93DF936C017B018A01D0E072
S1131E20B12CAA24A394F801C491D1110BC0CF3FC3
S1131E3009F44AC04C2FB701C6010E94F00E81116B
S1131E4048C04BC0CF3F51F44FEFB701C6010E94C9
S1131E50F00E882309F441C0DB2D3BC0CE3FE1F1F5
S1131E60C03FA0F5C03E40F04C2F4F70B701C601F3
S1131E700E94E60EDB2D2DC0C03D40F04C2F4F706C
S1131E80B701C6010E94C60EDB2D23C0C03CA0F0E2
S1131E90B701C6010E94D00EC295C07FCE5FD0E0CC
S1131EA0CE010E94EA10B701C6010E94DB0ECE01EA
S1131EB00E94EA10DB2D0DC0CC2354F08C2F90E04F
S1131EC00E94EA10DB2D05C0DA2D03C0DB2D01C012
S1131ED0DB2D0F5F1F4FA7CF81E0DF91CF911F91C3
S1131EE00F91FF90EF90DF90CF90BF90AF90089547
S1131EF0CF93DF93FC0123A52223B1F0EC0188E703
S1131F000E948210882389F08EA1811105C00E944D
S1131F10BF10811106C009C080E40E94BF1088234D
S1131F2021F01BA681E001C081E0DF91CF910895EB
S1131F30CF92DF92EF92FF920F931F93CF93E42EF1
S1131F4089016330B1F030F4613069F0623009F432
S1131F506FC074C0663041F1673009F448C0653021
S1131F6009F06CC010C0FC0186A50E943A10C1E0C3
S1131F706AC0FC0116A221E023A7411161C00E949E
S1131F80E210C1E060C00E94780FC82F811103C025
S1131F900E94E21058C08E2D0E94BF10C82F8111DC
S1131FA051C00E94E2104FC00E94780FC82F8823AE
S1131FB021F0E11005C0C1E046C00E94E21043C018
S1131FC06801EA948E2D90E00196080F191FF6011E
S1131FD081916F010E94BF10C82F811103C00E941C
S1131FE0E21031C0C016D10691F7C1E02CC00E94A6
S1131FF0780FC82F882321F0E11005C0C1E023C069
S11320000E94E21020C0EA94F12CFFEFEF1AFF0ABD
S1132010E00EF11EF80184910E94BF10C82F88239E
S113202091F00F5F1F4F0E151F05A1F7C1E00BC004
S1132030FC0146A321E023A7C1E005C0C1E003C021
S1132040C1E001C0C1E08C2FCF911F910F91FF908F
S1132050EF90DF90CF90089590911001911104C0FA
S11320608093100160930E01089510921001109254
S11320700E01089580930F011092B90084FF04C0EB
S113208082E08093B80003C080E28093B8000E948D
S1132090351008951F93CF93DF9300D0CDB7DEB7EB
S11320A020ED37E03A8329839091BC00982301F511
S11320B029813A81232B39F0ECEBF0E00EC0298121
S11320C03A81232B51F480910F01182F127081FD56
S11320D011C081E00E942C100EC029813A81215048
S11320E031093A8329839081982349F311E003C08D
S11320F011E001C011E0812F0F900F90DF91CF917B
S11321001F910895CF93DF93D82F94EA9093BC0046
S113211061E080E80E944A10C82F882361F1909101
S1132120B900987F983041F0903131F061E082E05D
S11321300E942C10C0E01FC0D093BB0084E88093A1
S1132140BC0062E080E80E944A10C82F882399F0FE
S113215080910F01C82FC27081FD0AC08091B9001F
S1132160887F883139F062E082E00E942C1003C03D
S1132170C1E001C0C1E08C2FDF91CF910895CF93CE
S11321808093BB0084E88093BC0063E080E80E94F5
S11321904A10C82F882399F080910F01C82FC2706C
S11321A081FD0AC08091B900887F883239F063E0EC
S11321B082E00E942C1003C0C1E001C0C1E08C2F5A
S11321C0CF91089584E98093BC0064E080E10E948B
S11321D04A100895009739F02EEC37E0F901319751
S11321E0F1F70197D9F70895AF92BF92CF92DF929A
S11321F0EF92FF920F931F93CF937C018B01C42F17
S11322006901403199F118F44A3031F03BC0413151
S113221099F1453159F036C042E00E94BC0E4CEEB3
S113222050E0B801C7010E94020F2CC0FB01A2803C
S1132230B38044EE50E00E94020FF5014481406BEC
S1132240B801C7010E94F00E41E0B801C7010E9425
S1132250E60EA801B701C5010E940F158823C1F03D
S113226040E0B801C7010E94C60E0CC04BED50E01F
S11322700E94020F81E00CC040ED50E00E94020F6A
S113228081E006C096014C2FB801C7010E94831556
S1132290CF911F910F91FF90EF90DF90CF90BF905F
S11322A0AF900895FC01E60FF11D849190E0982F02
S11322B088273196E4918E0F911D0895FC01849135
S11322C008950E945E11882321F0823011F083E08A
S11322D0089586E0089580E0089566E00E94521112
S11322E0089568E00E94521108950A96FC018491B1
S11322F008950B96FC0184910895AF92BF92CF92FA
S1132300DF92EF92FF920F931F93CF93DF937C01A1
S1132310B62EDC011496CD91DC911597CE010E9466
S11323205E11182FF701848195810E946111D82EC6
S1132330113029F40F2EFFE0AF2EF02D02C0AA2495
S1132340AA94D70114968D919C9115970E947511AA
S1132350182FF701848195810E947911082FD701E4
S113236014968D919C9115970E947111B0E6BB153E
S113237030F4009721F0C80FD91F11E60FC0F70100
S1132380848195810E946D11F0E4FB1530F400976F
S113239021F0C80FD91F11E401C061960B1590F408
S11323A0D70150961C92509753961C92539754966B
S11323B01C92549751961C92519752961C9280E00D
S11323C090E075C0011708F46AC02D2D30E06E014D
S11323D0FE0194919F3F11F421965DC01B1152C0E0
S11323E08E01D70114968D919C9115970E945E11D0
S11323F0882311F08230F1F4F601C490D70153968A
S1132400CC925397F8013196E4915496EC935497F7
S1132410F8013396E4915096EC935097F801349672
S1132420E4915196EC935197F8013596E4915296C4
S1132430EC9325C0FE018491982F9F709250D70190
S113244052969C935297C82EC694C694C694C6942A
S11324505196CC925197FE013196E4918E2F8F7054
S113246054968C935497E295EF705396EC9353974C
S1132470FE013296E491E295EF705096EC938C2F26
S11324809D2F15C0FE013296E491EA21C9018E0FF9
S1132490911DC80FD91F101711F01F5F98CFF701B6
S11324A0108A138A148A118A128A80E090E0DF91DC
S11324B0CF911F910F91FF90EF90DF90CF90BF903D
S11324C0AF9008956F927F928F929F92AF92BF9236
S11324D0CF92DF92EF92FF920F931F93CF93DF93EC
S11324E05C01162F642E622F0E947D116C01892BD2
S11324F009F448C0F501848195810E946111982EE8
S1132500F501D389C4897188710E9289691AF62CF0
S1132510FC1A0C2F2D2F4F2D672DC5010E948A0EFA
S1132520811103C0F50180892EC0D95FED2EE69498
S1132530E694E694CC2319F1E601C90DD11D882453
S11325408A948E0C912CFFEF8F1A9F0A11C0FE0102
S1132550049120E04F2D612FC5010E94971421960C
S1132560185FCC15DD0599F7E601F394F61439F0FC
S1132570EE20D9F36E01C80CD91C172DE8CFF50154
S1132580808901C080E0DF91CF911F910F91FF906E
S1132590EF90DF90CF90BF90AF909F908F907F90FF
S11325A06F900895CF92DF92FF920F931F93CF9372
S11325B0DF936C01C62FF42E8901DC015596ED9151
S11325C0FC9156970995F80EF8012081222381F099
S11325D00F5F1F4FD0E04F2D6C2FC6010E94621277
S11325E0C80FD80FD8012D918D012111F4CF01C04E
S11325F0D0E08D2FDF91CF911F910F91FF90DF904D
S1132600CF900895DC0114968D919C9115970097B5
S113261009F44DC057962C91579721110DC0FC0118
S11326203596E4915896EC935897FC013C96E491C6
S11326305996EC9359971BC0213069F4FC013F96DD
S1132640E4915896EC935897FC017096E49159964E
S1132650EC9359970CC0FC013D96E4915896EC9389
S11326605897FC013E96E4915996EC9359975896E5
S11326708C915897082E000C990B59962C915997C8
S1132680821B910927FD93955A962C915A972034D1
S113269061F0829FC00111240024880F991F001C3F
S11326A0880F991F001C892F902D5B968C93089599
S11326B02BE631E1FC01368B258B0895CF93DF9314
S11326C0FC01248135812617370749F0EC01758315
S11326D064830E9402138BE691E19E8B8D8BDF91C4
S11326E0CF9108951F93CF93DF93EC011D821C8239
S11326F01F821E82198681E0888782E28A871F866C
S11327001E86FE01B3969E012F5C3F4F8FEF81938F
S1132710E217F307E1F711E018A3CE010E94581362
S11327201F8B188E198E80E48A8F1B8E81ED95E1A4
S11327309AAB89ABDF91CF911F910895DB01ED91A5
S1132740FC91099508950F931F93CF93DF93EC01A8
S11327508B01E9A9FAA982E0099520E030E04AE07A
S1132760B801CE010E949E13182FE9A9FAA983E0AB
S11327700995E9A9FAA980E00995812FDF91CF9104
S11327801F910F9108950F931F93CF93DF93EC0143
S11327908B01E9A9FAA982E00995E9A9FAA981E0DE
S11327A0099520E030E044E1B801CE010E949E1377
S11327B09E012D5C3F4F47E1B801CE010E949E135C
S11327C0E9A9FAA980E00995DF91CF911F910F91B2
S11327D00895EF92FF921F93CF93DF93EC017B0157
S11327E0E9A9FAA982E00995E9A9FAA981E009957C
S11327F020E030E045E1B701CE010E949E13182F7E
S1132800882341F09E012D5C3F4F47E1B701CE0183
S11328100E949E13E9A9FAA980E00995812FDF910E
S1132820CF911F91FF90EF900895CF93DF931F9264
S1132830CDB7DEB79E012F5F3F4F46E40E949E1343
S113284089810F90DF91CF910895CF93DF931F92E9
S1132850CDB7DEB79E012F5F3F4F47E40E949E1322
S113286089810F90DF91CF91089520E030E048E412
S11328700E949E130895CF93DF93EC016A817B81BC
S11328800E94151488836A817B81CE010E942514DD
S113289089836A817B81CE010E9435148B879E01D6
S11328A02D5C3F4F6A817B8147E1CE010E949E13DC
S11328B0DF91CF910895CF93DF93EC016A817B81FF
S11328C00E94A313882321F0CE010E943B1481E0CF
S11328D0DF91CF910895EF92FF921F93CF93DF93EF
S11328E0EC017B01142F0E947213FB82EA821EA763
S11328F0CE010E945B14DF91CF911F91FF90EF9066
S11329000895FC01628173810E94C3130895CF93DB
S1132910DF93EC01EE85FF85309709F009956A8114
S11329207B81CE010E94E913DF91CF9108950F932B
S1132930FC0182819381648F458F278F068F9F01CD
S1132940245E3F4F4BE3BC01CF010E949E130F91C5
S11329500895FC011282808181508383148208953A
S1132960FC0190818281890F82832181821760F426
S113297084818F5F84838381980F921710F09FEF77
S1132980920F938381E0089580E00895DC01169608
S1132990ED91FC91179715968C919F01280F311D8D
S11329A0C9011192E817F907E1F70895FC0191E0D4
S11329B08381861708F490E031E0461708F030E090
S11329C0832F892B21E05281451708F420E0282326
S11329D0832F8923822B0895DC01FB011082129638
S11329E08C911297818315968C91159781508283CF
S11329F013968C9183830895FB01318123812130C7
S1132A0019F0233021F006C048E0430F04C0432FDF
S1132A10385001C0432F632F0E94D6140895FC013F
S1132A20CB01BA012681378145810E94FA0E0895AF
S1132A30DC011696ED91FC91179712968C91481B28
S1132A40477081E090E002C0880F991F4A95E2F731
S1132A50E60FF11D222321F09081892B80830895B4
S1132A6080959081892380830895FB014181FC0135
S1132A702281421770F02381241758F0FB01308122
S1132A80FC012581321728F4FB012481632F0E9465
S1132A9018150895DF92EF92FF920F931F93CF932F
S1132AA0DF937C01EB011A818B81813049F028F09E
S1132AB0823051F0833059F00EC0D12C01E00DC0AA
S1132AC0DD24D39400E009C0D12C0FEF06C0DD242F
S1132AD0DA9400E002C0D12C00E0112324F4BE01FA
S1132AE0C7010E9435159881900F988399819D0D97
S1132AF09983110F91F7DF91CF911F910F91FF905F
S1132B00EF90DF9008950F931F93CF93DF93FB0112
S1132B10C281D38150E0FA017497E433F105C8F51A
S1132B208901EC5CFF4F0C94B817B901CE010E94E7
S1132B30FC14882381F1B801CE010E944A1581E07A
S1132B402BC0B901CE010E94351581E025C0CE010C
S1132B500E94C614CE010E94A91481E01DC0CE01BA
S1132B600E94B0148823C1F0CE010E94C61481E0F3
S1132B7013C0B901CE010E94EC1481E00DC08D8117
S1132B80F901808381E008C08981F901808381E0B3
S1132B9003C081E001C081E0DF91CF911F910F91CB
S1132BA0089508951F920F920FB60F9211242F9338
S1132BB08F939F93EF93FF938091C0002091C60061
S1132BC08871E0919301EF5FEF7190919201E917A1
S1132BD039F0E0939301F0E0EA56FE4F208301C000
S1132BE082E080939101FF91EF919F918F912F91BA
S1132BF00F900FBE0F901F9018951F920F920FB653
S1132C000F9211248F939F93EF93FF9390919501CB
S1132C1080919401981769F0E0919401EF5FEF714E
S1132C20E0939401F0E0EA54FE4F80818093C60063
S1132C3005C0E1ECF0E080818F7D8083FF91EF910E
S1132C409F918F910F900FBE0F901F901895505821
S1132C50BB27AA270E943F160C94E8160E94DA1696
S1132C6038F00E94E11620F039F49F3F19F426F45D
S1132C700C94D7160EF4E095E7FB0C94D116E92FCB
S1132C800E94F91658F3BA17620773078407950769
S1132C9020F079F4A6F50C941B170EF4E0950B2E96
S1132CA0BA2FA02D0B01B90190010C01CA01A0019A
S1132CB01124FF27591B99F0593F50F4503E68F1F5
S1132CC01A16F040A22F232F342F4427585FF3CF36
S1132CD0469537952795A795F0405395C9F77EF407
S1132CE01F16BA0B620B730B840BBAF09150A1F050
S1132CF0FF0FBB1F661F771F881FC2F70EC0BA0FD6
S1132D00621F731F841F48F4879577956795B7955D
S1132D10F7959E3F08F0B0CF9395880F08F0992758
S1132D20EE0F979587950895E89409C097FB3EF4B4
S1132D3090958095709561957F4F8F4F9F4F992304
S1132D40A9F0F92F96E9BB279395F6958795779582
S1132D506795B795F111F8CFFAF4BB0F11F460FF42
S1132D601BC06F5F7F4F8F4F9F4F16C0882311F09A
S1132D7096E911C0772321F09EE8872F762F05C0AE
S1132D80662371F096E8862F70E060E02AF09A9549
S1132D90660F771F881FDAF7880F9695879597F93E
S1132DA0089597F99F6780E870E060E008959FEFC9
S1132DB080EC089500240A941616170618060906CE
S1132DC0089500240A94121613061406050608959D
S1132DD0092E0394000C11F4882352F0BB0F40F425
S1132DE0BF2B11F460FF04C06F5F7F4F8F4F9F4F65
S1132DF0089557FD9058440F551F59F05F3F71F0E7
S1132E004795880F97FB991F61F09F3F79F087954D
S1132E100895121613061406551FF2CF4695F1DFD6
S1132E2008C0161617061806991FF1CF8695710566
S1132E30610508940895E894BB2766277727CB019A
S1132E4097F908950E94941708F48FEF08950E944B
S1132E503A170C94E8160E94DA1638F00E94E1162C
S1132E6020F0952311F00C94D1160C94D71611244C
S1132E700C941C170E94F91670F3959FC1F3950FDB
S1132E8050E0551F629FF001729FBB27F00DB11DEA
S1132E90639FAA27F00DB11DAA1F649F6627B00D7A
S1132EA0A11D661F829F2227B00DA11D621F739F63
S1132EB0B00DA11D621F839FA00D611D221F749F71
S1132EC03327A00D611D231F849F600D211D822FB8
S1132ED0762F6A2F11249F5750409AF0F1F08823DF
S1132EE04AF0EE0FFF1FBB1F661F771F881F91500C
S1132EF05040A9F79E3F510580F00C94D1160C94D4
S1132F001C175F3FE4F3983ED4F386957795679555
S1132F10B795F795E7959F5FC1F7FE2B880F911D35
S1132F209695879597F90895990F0008550FAA0B60
S1132F30E0E8FEEF16161706E807F907C0F01216C8
S1132F401306E407F50798F0621B730B840B950BCB
S1132F5039F40A2661F0232B242B252B21F4089520
S1132F600A2609F4A140A6958FEF811D811D0895BD
S1132F70EE0FFF1F0590F491E02D0994BB274A3012
S1132F8031F4992322F4BDE2909581959F4F0C94DE
S1132F90CA17BB27FB015527AA27880F991FAA1F09
S1132FA0A41710F0A41B83955051B9F7A05DAA3360
S1132FB008F0A95DA193009779F7B111B19311922B
S1132FC0CB010C94E317DC01FC01672F719177238B
S1132FD0E1F7329704C07C916D9370836291AE17D0
S10D2FE0BF07C8F30895F894FFCF6B
S1112FEAF4100601980F084000000080110149
S9030000FC
