S01400006D70755F636F6E6E746573742E73726563F1
S11300000C943F080C945C080C945C080C945C08F9
S11300100C945C080C945C080C945C080C945C08CC
S11300200C945C080C945C080C945C080C945C08BC
S11300300C945C080C945C080C945C080C945C08AC
S11300400C945C080C945C080C941B130C944613DD
S11300500C945C080C945C080C945C080C945C088C
S11300600C945C080C945C08F012F812121302133E
S11300701213121312131213121312131213121354
S11300801213121312131213121312131213121344
S11300901213121312131213121312131213121334
S11300A012131213EA12121312131213121312134D
S11300B0121312131213DE12121312131213121349
S11300C012131213121312131213121308130D1313
S11300D0FFE0FFD1AFFF32FFD0FFFEFFE0FFD1AE64
S11300E0FFD0FFFEFFE0FFD11000FFFEFFD0FFE0D6
S11300F0FFC1FFD1AED580A83FD300408D142000AE
S1130100A1C8DA1281CFD9F1DB402EA4A6AFFFD06B
S1130110FFFE001815FFFC0B0252053720FFFD11EE
S1130120FC0BFD000000050000020B0B060200C0E2
S1130130C0C0C0C0C0C0C00000C00605050801069C
S1130140CCCCCCCCCC0A0B160B010009801980193D
S1130150007FC0330032003600FF0064006C004CA6
S113016000080E0E0A01FE083E7ECBC8F87E0F0B77
S1130170CBEB7E08080F0B161101003C20EE60C685
S113018040C6C0E7807D7C03EE02C606C604EE08C6
S11301907C0B0B160D01003E007700630077003CDA
S11301A0007CC0EEC0C7C0C3C0F3C03FE002050579
S11301B0070206C0C0C0C0C0030E0E0601FD606089
S11301C060E0C0C0C0C0C0C0E0606060030E0E0745
S11301D002FDC0C0C06060606060606060E0C0C07C
S11301E00605050A02057830FC3078090912100367
S11301F0000800080008000800FF80080008000844
S11302000008000304040501FE6060C0C00402028B
S1130210060103F0F0020202050200C0C0050C0C46
S11302200701FF18181030302020606040C0C0085B
S11302300B0B0901003C66C3C3C3C3C3C3C3663C01
S1130240040B0B09020030F0F03030303030303025
S113025030080B0B0901003E77630307061E3C7050
S1130260E0FF080B0B0901007CEEC6063C0603C345
S1130270C77E3C080B0B0901000E1E1E366666C6BF
S1130280FFFF0606080B0B090100FEC0C0C0FEE715
S11302900303C7FE7C080B0B0901003C7643C0DE58
S11302A0E7C3C3C3663C080B0B090100FF03070641
S11302B00E0C1C18383870080B0B0901007EE7C3BC
S11302C0E73C66C3C3C3E73C080B0B0901003C666B
S11302D0C3C3E77F0303C66E3C020808050200C0DF
S11302E0C000000000C0C0030A0A0501FE606000EF
S11302F00000006060C0C00A081010030100400341
S1130300800C007000800070000E0001C00A040818
S1130310100303FFC000000000FFC00A0810100310
S113032001800060001C00038000C007001800E08A
S113033000070B0B09010078EE86060C18303030EC
S113034000300F0E1C1101FD07E01E78301C67EC15
S1130350EEE6CC66CC66CC66CC66EFFC67B83000C3
S11303601C2007E00B0B160B00000E000E000F0004
S11303701B001B80398031803FC07FC060E0E0609B
S1130380090B160B0100FE00C700C300C300C70021
S1130390FC00C300C180C180C380FE000A0B160CA0
S11303A001001F00738061C0C000C000C000C00015
S11303B0C1C061C073801F00090B160B0100FC0053
S11303C0CF00C300C180C180C180C180C180C3008F
S11303D0CF00FC00080B0B0A0100FFC0C0C0C0FF27
S11303E0C0C0C0C0FF080B0B090100FFC0C0C0C0E3
S11303F0FEC0C0C0C0C00A0B160C01001F003BC0E9
S113040060C0E000C000C3C0C0C0C0C060C039C08C
S11304101FC0090B160B0100C180C180C180C180BF
S1130420C180FF80C180C180C180C180C180020BB6
S11304300B040100C0C0C0C0C0C0C0C0C0C0C00860
S11304400B0B0A010003030303030303C3C3FE7C72
S1130450090B160B0100C300C700CE00DC00F80036
S1130460F800DC00CE00CE00C700C380080B0B09E7
S11304700100C0C0C0C0C0C0C0C0C0FFFF0D0B168B
S11304800F0100F078F078F8F8D8D8D8D8DDD8CDB6
S113049098CD98CF98C718C7180A0B160C0100F00E
S11304A0C0F0C0F8C0D8C0DCC0CCC0CEC0C6C0C785
S11304B0C0C3C0C3C00B0B160D01001F007BC0607E
S11304C0C0C060C060C060C060C06060C07BC01F4E
S11304D000080B0B0A0100FCC7C3C3C7FEC0C0C0A1
S11304E0C0C00C0B160E01001F007B8060C0C060F2
S11304F0C060C060C060C06060C07BC01FF0090BFA
S1130500160B0100FE00C780C180C180C300FE003D
S1130510C300C180C180C180C180090B160B0100DA
S11305203E007700C180E000F8007F000F8001806A
S1130530C18077003E00090B160B0100FF800C0000
S11305400C000C000C000C000C000C000C000C0047
S11305500C000A0B160C0100C0C0C0C0C0C0C0C053
S1130560C0C0C0C0C0C0C0C0E1C073803E000B0B9F
S1130570160C0000E060606070E030C031C039806B
S113058019801F801F000F000E00100B16100000B2
S1130590E18763C663C663C677CE366C366C366C49
S11305A03C3C1C381C380B0B160B000070C031C0CF
S11305B03B801F000E000E001F001B00338071C023
S11305C0E0E00A0B160A0000E1C0718033803B00B2
S11305D01F001E000C000C000C000C000C00080B8B
S11305E00B0A0100FF07060E1C18387060C0FF04D8
S11305F00E0E0601FDF0C0C0C0C0C0C0C0C0C0C067
S1130600C0C0F0050C0C0701FF80C0C04060602032
S11306103030101018040E0E0701FDF03030303069
S11306203030303030303030F0080A0A1004001016
S11306301818242424424281810801010800FEFF85
S1130640030303040009C040200708080901003C13
S11306506E067EE6C6EE76080B0B0A0100C0C0C02B
S1130660DCF6C7C3C3C3E6DC0708080901003C6E17
S1130670C6C0C0C6EE3C080B0B0A01000303033BD3
S11306806FE3C3C3C3673B0708080901003C6EC698
S1130690FEC0C66E3C050B0B070100383030F83045
S11306A0303030303030080B0B0A01FD3B6FE3C3B0
S11306B0C3C3673B03673C070B0B090100C0C0C001
S11306C0DCEEC6C6C6C6C6C6020B0B040100C0C01B
S11306D000C0C0C0C0C0C0C0C0030E0E0501FD6094
S11306E06000606060606060606060E0E0070B0B69
S11306F0090100C0C0C0CEDCD8F0D8DCCCC6020BE7
S11307000B040100C0C0C0C0C0C0C0C0C0C0C00C89
S113071008100E0100DCE0EF70C630C630C630C6EB
S113072030C630C630070808090100DCEEC6C6C66C
S1130730C6C6C60808080A01003C66C3C3C3C3662C
S11307403C080B0B0A01FDDCE6C3C3C3C7F6DCC0DF
S1130750C0C0080B0B0A01FD3B67C3C3C3C36F3B97
S1130760030303050808070100D8F0C0C0C0C0C0D7
S1130770C00708080901007CEEC0F81EC6EE7C061E
S11307800A0A0801003030FC3030303030381C07A1
S11307900808090100C6C6C6C6C6C6EE760808081B
S11307A0090000E3636776363C1C1C0D08100E003C
S11307B000E718679867986FB03DF03CF03CF0385C
S11307C0E008080809000063763E1C3C3E67E30825
S11307D00B0B0900FDE3637736363E1C1C181838F2
S11307E0060808080100FC0C18387060C0FC060FED
S11307F00F0801FC1C383030303070C060303030AD
S113080030301C0110100502FC80808080808080C4
S1130810808080808080808080060F0F0801FCE04B
S11308207030303030180C183030303030F008026E
S11308300209000379DFFFFFFFFFFFFFFFFFFFFF58
S1130840FFFFFFFFFFFFFFFFFFFFFFFFFFFFFFFFB4
S1130850FFFFFFFFFFFFFF000000050000020B0B7E
S11308600602FDC00000C0C0C0C0C0C0C0C0070CAC
S11308700C0901FE04043C6ECED0D0D66E3C204060
S1130880080B0B0A01003E776060FC6060606060EA
S1130890FF0908100A010280805D00220041004126
S11308A00022005D008080090B160B0100C38063E9
S11308B0006700F7803E003C00FF80180018001815
S11308C0001800010E0E0502FD80808080808000EB
S11308D000808080808080060E0E0801FD78ECC0C8
S11308E0E0787CCCCCF8781C0C9CF8050101050060
S11308F00AD80C0B160E01001F8039C06F60D9B0E6
S11309009810981099908F10402030C01F800508CF
S11309100807010370D878D8D87800F80806060AC2
S113092001016766EECE66670904080A0003FF80CA
S1130930008000800080FF0C0B160E01001F803920
S1130940C06F60C9B088908F108990889048A0309B
S1130950C01F8005010105000AF80404040601070C
S113096060D090F0090A1410030008000800080081
S1130970FF8008000800080000000000FF80050652
S11309800607010570D81830C0F8050707070104E9
S113099070D8187018D87003030304010960C0806C
S11309A0FF070E0E0901FD7EF4F4F4F4741414141C
S11309B01414141414020202040104C0C004040434
S11309C00300FC4030B0E003060605010560E0606A
S11309D060606006080808010378FCCCCCCC780081
S11309E0FC0806060A0101CC66676766CC0C0B1688
S11309F00D0100E08061806300630066006CE00C20
S1130A00E019E0196033F060600B0B160D01006112
S1130A1000E3006200660064006DE01B6018603152
S1130A20C0230063E00C0B160D010078C0D8807160
S1130A3080D9007300066004E00DE0196019F030FD
S1130A4060070B0B0901FD180018183870E0C0C2CC
S1130A50FE3C0B10200B000018000C0004000000EA
S1130A6000000E000E000F001B001B803980318037
S1130A703FC07FC060E0E0600B10200B000003006B
S1130A8002000400000000000E000E000F001B0016
S1130A901B80398031803FC07FC060E0E0600B1074
S1130AA0200B000006000E001900000000000E00DC
S1130AB00E000F001B001B80398031803FC07FC0B7
S1130AC060E0E0600B0F1E0B00000D00170000003B
S1130AD000000E000E000F001B001B8039803180C7
S1130AE03FC07FC060E0E0600B0F1E0B00001B00E6
S1130AF00000000000000E000E000F001B001B0091
S1130B003B8031803FC07FC060E0E0600A11220C6E
S1130B1001000C00120012001E00000000000C0076
S1130B201E001E003F003300330063807F80FFC03F
S1130B30C0C0C0C00F0B1610000003FE0780078062
S1130B400D801D8019FE39803F8061806180C1FE67
S1130B500A0F1E0C01FC1F00778061C0C000C0009A
S1130B60C000C000C1C061C073803E0008000E0018
S1130B7002001C000810100A01006030180000FF79
S1130B80C0C0C0C0FFC0C0C0C0FF0810100A010030
S1130B900C08100000FFC0C0C0C0FFC0C0C0C0FF30
S1130BA00810100A0100183C240000FFC0C0C0C097
S1130BB0FFC0C0C0C0FF080F0F0A0100660000009C
S1130BC0FFC0C0C0C0FFC0C0C0C0FF04101004FFFD
S1130BD000C06030000030303030303030303030E1
S1130BE0300410100401007060C00000C0C0C0C018
S1130BF0C0C0C0C0C0C0C004101004000060F090A9
S1130C0000006060606060606060606060050F0F9D
S1130C10050000D800000030303030303030303043
S1130C2030300B0B160C00007F00638060C060E066
S1130C306060FC60606060E060C063807F000A0FF9
S1130C401E0C01001900160000000000F0C0F0C0E6
S1130C50F8C0D8C0DCC0CCC0CEC0C6C0C7C0C3C0FA
S1130C60C3C00B10200D0100180008000C00000088
S1130C7000001F007BC060C0C060C060C060C06076
S1130C80C06060C07BC01F000B10200D010003007A
S1130C9002000400000000001F007BC060C0C060B0
S1130CA0C060C060C060C06060C07BC01F000B102B
S1130CB0200D01000E001B001100000000001F00A9
S1130CC07BC060C0C060C060C060C060C06060C005
S1130CD07BC01F000B0F1E0D01001F000000000051
S1130CE000001F007BC060C0C060C060C060C06006
S1130CF0E0E060C07FC01F000B0F1E0D01001B0051
S1130D000000000000001F007BC060C0C060C06025
S1130D10C060C060C06060C07BC01F0008080810CD
S1130D20040081C36618182442810B0B160D0100C0
S1130D301FA03BC060C0C160C260C460C860D06016
S1130D40E0C07B80BF000A10200C010030001800B6
S1130D50080000000000C0C0C0C0C0C0C0C0C0C007
S1130D60C0C0C0C0C0C0E1C07F803E000A10200CDB
S1130D70010003000600040000000000C0C0C0C061
S1130D80C0C0C0C0C0C0C0C0C0C0C0C0E1C07F80BF
S1130D903E000A10200C01001C001E00330000005D
S1130DA00000C0C0C0C0C0C0C0C0C0C0C0C0C0C0BF
S1130DB0C0C0E1C07F803E000A0F1E0C010033005A
S1130DC0000000000000C0C0C0C0C0C0C0C0C0C09F
S1130DD0C0C0C0C0C0C0E1C073803E000A10200A79
S1130DE0000006000600040000000000E1C071805D
S1130DF033803B001F001E000C000C000C000C0094
S1130E000C00080B0B0A0100C0C0FEC7C3C3C7FE19
S1130E10C0C0C0080B0B0A01007CEEC6CEDCD8CEE5
S1130E20C7C3DBDE070C0C090100603010003C6E08
S1130E30067EE6C6EE76070C0C0901000C181000BD
S1130E403C6E067EE6C6EE76070C0C090100382CD3
S1130E5044003C6E067EE6C6EE76070B0B090100E5
S1130E603C00003C6E067EE6C6EE76070B0B0901DD
S1130E70006C00003CE6067EE6C6EE76070D0D0922
S1130E8001001824243C003C66067EE6C6EE7E0D76
S1130E9008100F01003CE067B007187FF8E700C7AF
S1130EA018EDB878F0070C0C0901FC3C6EC6C0C004
S1130EB0C66E3C101C0438070D0D0901006020307B
S1130EC010003C6EC6FEC0C66E3C070D0D09010045
S1130ED00C0C1810003C6EC6FEC0C66E3C070D0D0F
S1130EE009010018382C44003C6EC6FEC0C66E3C96
S1130EF0070C0C0901006C0000003C6EC6FEC0CE5D
S1130F006E3C030C0C040000C06020006060606054
S1130F1060606060030C0C04010060C08000C0C00D
S1130F20C0C0C0C0C0C0050C0C04000060D0880064
S1130F306060606060606060050B0B050000D800B5
S1130F40003030303030303030080B0B0A010033C1
S1130F501C663E67C3C3C3C3673C070B0B09010090
S1130F603C0000DCEEC6C6C6C6C6C6080D0D0A01A6
S1130F700060301008003C66C3C3C3C3663C080D60
S1130F800D0A0100060C0810003C66C3C3C3C36607
S1130F903C080D0D0A0100181C2422003C66C3C342
S1130FA0C3C3663C080B0B0A01003C00003C66C34B
S1130FB0C3C3C3663C080C0C0A0100660000003C75
S1130FC066C3C3C3C3663C0A060C1003020C0000CC
S1130FD000FFC0000000000C00080A0A0A01FF011B
S1130FE03E66CFCBD3E376FC80070C0C090100608E
S1130FF0301000C6C6C6C6C6C6EE76070C0C09017C
S1131000000C181000C6C6C6C6C6C6EE76070C0C81
S113101009010038284400C6C6C6C6C6C6EE76070F
S11310200B0B0901006C0000C6C6C6C6C6C6EE7628
S11310300910200900FD070006000C00080000004C
S1131040638063007300360036001E001C001C0021
S11310501C00F8007000080E0E0A01FDC0C0C0DCC0
S1131060E6C3C3C3C7E6DCC0C0C0080E0E0901FD59
S11310706C0000C7C6EE6C6C3C3838383030112434
S11310801FBECFEFD8E0DEBFCDBF11E0A0E0B1E0DE
S1131090EAE5FAE202C005900D92A433B107D9F74C
S11310A022E0A4E3B1E001C01D92A333B207E1F74B
S11310B00E94290A0C942B150C9400001092B9007C
S11310C080E28093B800089594EA9093BC004FEFB7
S11310D050E060E070E0ECEBF0E09081992334F0B4
S11310E04150510961097109C0F704C0452B462BD1
S11310F0472B41F19091B900987F983011F09031CD
S113110019F58093BB0084E88093BC008FEF90E0D6
S1131110A0E0B0E0ECEBF0E0208122232CF001977A
S1131120A109B109C8F704C0892B8A2B8B2B71F054
S11311309091B900987F983159F081E0903449F446
S113114080E0089581E0089581E0089581E00895A4
S113115080E0089584E98093BC0080E090E0ECEBAB
S1131160F0E0208124FF05C00196811521E092075B
S1131170C1F708958093BB0084E88093BC008FEF8F
S113118090E0A0E0B0E0ECEBF0E0208122232CF032
S11311900197A109B109C8F704C0892B8A2B8B2BAD
S11311A041F09091B900987F81E0983219F480E081
S11311B0089581E0089584EC8093BC008FEF90E063
S11311C0A0E0B0E0ECEBF0E0208122232CF00197CA
S11311D0A109B109C8F704C0892B8A2B8B2B19F0FC
S11311E08091BB00089580E0089584E88093BC005A
S11311F08FEF90E0A0E0B0E0ECEBF0E02081222360
S11312002CF00197A109B109C8F704C0892B8A2BD6
S11312108B2B19F08091BB00089580E00895CF9343
S1131220DF93C82F80ED0E9464088C2F0E94BA08B7
S11312308AE18A95F1F700C081ED0E9464080E945A
S1131240DB08D82F0E94F508C82F0E94AA086C2F2B
S113125070E07D2B072E000C880B990B0E941A144A
S11312609F7720E030E04AE754E40E9470130E9424
S1131270E213CB01DF91CF910895CF93DF9300D098
S113128000D000D0CDB7DEB720910E0130910F0110
S11312903A8329831B821C821D821E824AE0BE017E
S11312A06F5F7F4F0E94F6148CEF91E00E94CA1189
S11312B09E012F5F3F4F40E162E08CEF91E00E947E
S11312C01B108CEF91E00E94D0118111F1CF269672
S11312D00FB6F894DEBF0FBECDBFDF91CF91089556
S11312E0CF93DF93EC018CEF91E00E94CA119E0131
S11312F040E262E08CEF91E00E941B108CEF91E0E1
S11313000E94D0118111F3CFDF91CF9108952F92D4
S11313103F924F925F926F927F928F929F92AF9281
S1131320BF92CF92DF92EF92FF920F931F93CF93CE
S1131330DF9300D000D0CDB7DEB78C011B015A83F8
S1131340498384E191E00E9470098AE090E09C83E3
S11313508B83C12CD12C7601412C512C3201812C50
S1131360912C54018BE390E00E940F09092E000C8C
S1131370AA0BBB0B880E991EAA1EBB1E8DE390E020
S11313800E940F09092E000CAA0BBB0B480E591E14
S11313906A1E7B1E8FE390E00E940F09092E000C49
S11313A0AA0BBB0BC80ED91EEA1EFB1EEFE1FEE41E
S11313B03197F1F700C000008B819C8101979C83D9
S11313C08B83892B79F6C501B4012AE030E040E033
S11313D050E00E94BA14F80131832083C301B201A2
S11313E02AE030E040E050E00E94BA14F101318379
S11313F02083C701B6012AE030E040E050E00E94BB
S1131400BA14E981FA813183208383E291E00E9456
S11314107009FFEF24E38CE0F15020408040E1F7B5
S113142000C000000F900F900F900F90DF91CF91AC
S11314301F910F91FF90EF90DF90CF90BF90AF90EE
S11314409F908F907F906F905F904F903F902F90E0
S11314500895CF93DF9300D000D000D0CDB7DEB78E
S113146040E060E071E08CEF91E00E94B41162E131
S113147071E08CEF91E00E94A7101A8219821C82FD
S11314801B821E821D82AE014B5F5F4FBE016D5FEA
S11314907F4FCE0101960E94870978940E949F0B8A
S11314A02FE788E391E0215080409040E1F700C0AD
S11314B000000F2EF3E0EF2EF12CF02D8BE390E0E3
S11314C00E940F0929813A816C01C21AD30A8DE363
S11314D090E00E940F092B813C818C01021B130BAD
S11314E08FE390E00E940F090C0D1D1D2D813E819C
S11314F0821B930B800F911FB7010E94A6146630C4
S113150071056CF0CB010E943D098FE19EE40197C7
S1131510F1F700C000008FE291E00E9470098FE0B3
S113152097E20197F1F700C00000C8CFAF92BF92D5
S1131530DF92EF92FF920F931F93CF93DF93662373
S1131540B9F1C52FD42FD62E182F80ED0E94640830
S1131550812F0E94BA088AE18A95F1F700C081EDD3
S11315600E9464080D2F1C2FEE24EA94ED0CF12C3C
S1131570EFEFEE1AFE0AC0E0D0E0AD2CB12CF1E0A2
S1131580AF1AB108CA15DB0529F40E94F508F80161
S1131590808304C00E94DB08F801808321960F5FDA
S11315A01F4FCE15DF0571F7CD2D0E94AA0801C08B
S11315B0C0E08C2FDF91CF911F910F91FF90EF909E
S11315C0DF90BF90AF900895AB0161E00E94960A4E
S11315D00895EF92FF920F931F93CF93DF936623A7
S11315E0D1F07A01162FC82F80ED0E9464088C2F49
S11315F00E94BA08E7016FEF610F062F10E00F5F3A
S11316001F4F0E0D1F1D89910E94BA08C017D107E4
S1131610D1F70E94AA08DF91CF911F910F91FF90FB
S1131620EF900895CF93DF931F92CDB7DEB7698310
S1131630AE014F5F5F4F61E00E94E90A0F90DF91B6
S1131640CF910895EF92FF920F931F93CF93DF935F
S11316501F92CDB7DEB7442389F1F22E142F062F43
S1131660E82E1982BE016F5F7F4F0E94E40A88232F
S113167029F1402F50E0411B51094F5F5F4F81E03A
S113168090E002C0880F991F1A95E2F70197042E83
S113169002C0880F991F0A94E2F72F2D30E002C090
S11316A0220F331F4A95E2F7682F609599816923C9
S11316B08223682B69838E2D0E94120B0F90DF9179
S11316C0CF911F910F91FF90EF900895FF920F9388
S11316D01F93CF93DF931F92CDB7DEB7182F062F3A
S11316E0F42EBE016F5F7F4F0E94E40AFF2059F081
S11316F021E030E0B90102C0660F771F0A95E2F7D6
S11317008981682B0BC021E030E0B90102C0660F6B
S1131710771F0A95E2F76095998169236983812F80
S11317200E94120B0F90DF91CF911F910F91FF90A8
S1131730089540E066E08BE60E94660B08950E94DF
S11317405E082AE12A95F1F700C08FEF90E722E0C6
S1131750815090402040E1F700C000000E94990BA6
S11317608FE19EE40197F1F700C0000021E043E01F
S113177062E08BE60E94220B23E043E062E08AE110
S11317800E94220B64E089E10E94120B23E042E0F4
S113179064E08BE10E94220B20E042E064E08CE1F3
S11317A00E94220B08950F93FC010150040F84A999
S11317B096A9941738F0081768F481E0041740F0EC
S11317C080E006C00817D0F081E0041708F080E03C
S11317D08823C9F02150260F83A995A9961738F0BC
S11317E0281770F481E0261770F080E00CC02817E9
S11317F048F081E0261738F080E005C080E003C09F
S113180081E001C080E00F910895DB011496ED9111
S1131810FC91159720E030E061E009950895DB0123
S11318201496ED91FC91159720E030E063E0099562
S11318300895DB011496ED91FC91159720E030E0BA
S113184040E064E009950895DB011496ED91FC9164
S1131850159720E030E041E064E009950895DB014C
S11318601496ED91FC91159720E030E062E0099523
S11318700895DB011496ED91FC91159720E030E07A
S113188065E009950895DB011496ED91FC91159797
S113189066E009950895AF92BF92CF92DF92EF92DE
S11318A0FF920F931F93CF93DF936C017B018A0107
S11318B0D0E0B12CAA24A394F801C491D1110BC097
S11318C0CF3F09F44AC04C2FB701C6010E94390C1E
S11318D0811148C04BC0CF3F51F44FEFB701C6014F
S11318E00E94390C882309F441C0DB2D3BC0CE3F54
S11318F0E1F1C03FA0F5C03E40F04C2F4F70B7015E
S1131900C6010E942F0CDB2D2DC0C03D40F04C2F92
S11319104F70B701C6010E940F0CDB2D23C0C03CE1
S1131920A0F0B701C6010E94190CC295C07FCE5F1A
S1131930D0E0CE010E94330EB701C6010E94240CF0
S1131940CE010E94330EDB2D0DC0CC2354F08C2F1E
S113195090E00E94330EDB2D05C0DA2D03C0DB2D91
S113196001C0DB2D0F5F1F4FA7CF81E0DF91CF9127
S11319701F910F91FF90EF90DF90CF90BF90AF90A9
S11319800895CF93DF93FC0123A52223B1F0EC014A
S113199088E70E94CB0D882389F08EA1811105C0B0
S11319A00E94080E811106C009C080E40E94080E3E
S11319B0882321F01BA681E001C081E0DF91CF9153
S11319C00895CF92DF92EF92FF920F931F93CF93DC
S11319D0E42E89016330B1F030F4613069F0623093
S11319E009F46FC074C0663041F1673009F448C02F
S11319F0653009F06CC010C0FC0186A50E94830DFF
S1131A00C1E06AC0FC0116A221E023A7411161C014
S1131A100E942B0EC1E060C00E94C10CC82F81112E
S1131A2003C00E942B0E58C08E2D0E94080EC82F92
S1131A30811151C00E942B0E4FC00E94C10CC82FAF
S1131A40882321F0E11005C0C1E046C00E942B0E9E
S1131A5043C06801EA948E2D90E00196080F191F87
S1131A60F60181916F010E94080EC82F811103C0F5
S1131A700E942B0E31C0C016D10691F7C1E02CC0D4
S1131A800E94C10CC82F882321F0E11005C0C1E0D9
S1131A9023C00E942B0E20C0EA94F12CFFEFEF1A12
S1131AA0FF0AE00EF11EF80184910E94080EC82F6F
S1131AB0882391F00F5F1F4F0E151F05A1F7C1E09A
S1131AC00BC0FC0146A321E023A7C1E005C0C1E08F
S1131AD003C0C1E001C0C1E08C2FCF911F910F91D1
S1131AE0FF90EF90DF90CF9008959091360191117F
S1131AF004C0809336016093340108951092360136
S1131B00109234010895809335011092B90084FF36
S1131B1004C082E08093B80003C080E28093B800E0
S1131B200E947E0D08951F93CF93DF9300D0CDB70D
S1131B30DEB720ED37E03A8329839091BC009823E7
S1131B4001F529813A81232B39F0ECEBF0E00EC04A
S1131B5029813A81232B51F480913501182F127079
S1131B6081FD11C081E00E94750D0EC029813A816A
S1131B70215031093A8329839081982349F311E054
S1131B8003C011E001C011E0812F0F900F90DF918D
S1131B90CF911F910895CF93DF93D82F94EA909318
S1131BA0BC0061E080E80E94930DC82F882361F196
S1131BB09091B900987F983041F0903131F061E014
S1131BC082E00E94750DC0E01FC0D093BB0084E882
S1131BD08093BC0062E080E80E94930DC82F8823A4
S1131BE099F080913501C82FC27081FD0AC080919F
S1131BF0B900887F883139F062E082E00E94750D77
S1131C0003C0C1E001C0C1E08C2FDF91CF910895E2
S1131C10CF938093BB0084E88093BC0063E080E8AA
S1131C200E94930DC82F882399F080913501C82F05
S1131C30C27081FD0AC08091B900887F883239F072
S1131C4063E082E00E94750D03C0C1E001C0C1E001
S1131C508C2FCF91089584E98093BC0064E080E1E7
S1131C600E94930D0895009739F02EEC37E0F901A6
S1131C703197F1F70197D9F70895AF92BF92CF92B8
S1131C80DF92EF92FF920F931F93CF937C018B010E
S1131C90C42F6901403199F118F44A3031F03BC046
S1131CA0413199F1453159F036C042E00E94050CAA
S1131CB04CEE50E0B801C7010E944B0C2CC0FB0154
S1131CC0A280B38044EE50E00E944B0CF5014481A5
S1131CD0406BB801C7010E94390C41E0B801C7014B
S1131CE00E942F0CA801B701C5010E945812882335
S1131CF0C1F040E0B801C7010E940F0C0CC04BEDCD
S1131D0050E00E944B0C81E00CC040ED50E00E947A
S1131D104B0C81E006C096014C2FB801C7010E940C
S1131D20CC12CF911F910F91FF90EF90DF90CF9045
S1131D30BF90AF900895FC01E60FF11D849190E0EF
S1131D40982F88273196E4918E0F911D0895FC01F8
S1131D50849108950E94A70E882321F0823011F007
S1131D6083E0089586E0089580E0089566E00E9487
S1131D709B0E089568E00E949B0E08950A96FC014C
S1131D80849108950B96FC0184910895AF92BF92BB
S1131D90CF92DF92EF92FF920F931F93CF93DF9333
S1131DA07C01B62EDC011496CD91DC911597CE0101
S1131DB00E94A70E182FF701848195810E94AA0E14
S1131DC0D82E113029F40F2EFFE0AF2EF02D02C0D3
S1131DD0AA24AA94D70114968D919C9115970E94D8
S1131DE0BE0E182FF701848195810E94C20E082F20
S1131DF0D70114968D919C9115970E94BA0EB0E666
S1131E00BB1530F4009721F0C80FD91F11E60FC09D
S1131E10F701848195810E94B60EF0E4FB1530F43D
S1131E20009721F0C80FD91F11E401C061960B156A
S1131E3090F4D70150961C92509753961C92539746
S1131E4054961C92549751961C92519752961C92F8
S1131E5080E090E075C0011708F46AC02D2D30E0D1
S1131E606E01FE0194919F3F11F421965DC01B11F8
S1131E7052C08E01D70114968D919C9115970E94A2
S1131E80A70E882311F08230F1F4F601C490D70133
S1131E905396CC925397F8013196E4915496EC936F
S1131EA05497F8013396E4915096EC935097F801C7
S1131EB03496E4915196EC935197F8013596E49158
S1131EC05296EC9325C0FE018491982F9F709250F6
S1131ED0D70152969C935297C82EC694C694C69422
S1131EE0C6945196CC925197FE013196E4918E2F6F
S1131EF08F7054968C935497E295EF705396EC93AD
S1131F005397FE013296E491E295EF705096EC936C
S1131F108C2F9D2F15C0FE013296E491EA21C90150
S1131F208E0F911DC80FD91F101711F01F5F98CF86
S1131F30F701108A138A148A118A128A80E090E0C9
S1131F40DF91CF911F910F91FF90EF90DF90CF9091
S1131F50BF90AF9008956F927F928F929F92AF92AD
S1131F60BF92CF92DF92EF92FF920F931F93CF9382
S1131F70DF935C01162F642E622F0E94C60E6C0143
S1131F80892B09F448C0F501848195810E94AA0E29
S1131F90982EF501D389C4897188710E9289691AC2
S1131FA0F62CFC1A0C2F2D2F4F2D672DC5010E94E6
S1131FB0D30B811103C0F50180892EC0D95FED2EAA
S1131FC0E694E694E694CC2319F1E601C90DD11DFB
S1131FD088248A948E0C912CFFEF8F1A9F0A11C0CB
S1131FE0FE01049120E04F2D612FC5010E94E011F4
S1131FF02196185FCC15DD0599F7E601F394F614E4
S113200039F0EE20D9F36E01C80CD91C172DE8CF96
S1132010F501808901C080E0DF91CF911F910F917C
S1132020FF90EF90DF90CF90BF90AF909F908F90F4
S11320307F906F900895CF92DF92FF920F931F933A
S1132040CF93DF936C01C62FF42E8901DC015596E2
S1132050ED91FC9156970995F80EF8012081222301
S113206081F00F5F1F4FD0E04F2D6C2FC6010E94EF
S1132070AB0FC80FD80FD8012D918D012111F4CFCA
S113208001C0D0E08D2FDF91CF911F910F91FF9070
S1132090DF90CF900895DC0114968D919C91159753
S11320A0009709F44DC057962C91579721110DC0F4
S11320B0FC013596E4915896EC935897FC013C96B4
S11320C0E4915996EC9359971BC0213069F4FC01B3
S11320D03F96E4915896EC935897FC017096E491DE
S11320E05996EC9359970CC0FC013D96E49158968F
S11320F0EC935897FC013E96E4915996EC935997CA
S113210058968C915897082E000C990B59962C913F
S11321105997821B910927FD93955A962C915A97AA
S1132120203461F0829FC00111240024880F991F7C
S1132130001C880F991F001C892F902D5B968C938F
S1132140089524EB3EE0FC01368B258B0895CF9354
S1132150DF93FC01248135812617370749F0EC0110
S1132160758364830E944B1084EB9EE09E8B8D8B61
S1132170DF91CF9108951F93CF93DF93EC011D82DC
S11321801C821F821E82198681E0888782E28A87E8
S11321901F861E86FE01B3969E012F5C3F4F8FEF74
S11321A08193E217F307E1F711E018A3CE010E942F
S11321B0A1101F8B188E198E80E48A8F1B8E8AE1E2
S11321C093E19AAB89ABDF91CF911F910895DB0125
S11321D0ED91FC91099508950F931F93CF93DF938D
S11321E0EC018B01E9A9FAA982E0099520E030E02D
S11321F04AE0B801CE010E94E710182FE9A9FAA914
S113220083E00995E9A9FAA980E00995812FDF9176
S1132210CF911F910F9108950F931F93CF93DF9345
S1132220EC018B01E9A9FAA982E00995E9A9FAA9C7
S113223081E0099520E030E044E1B801CE010E943C
S1132240E7109E012D5C3F4F47E1B801CE010E948B
S1132250E710E9A9FAA980E00995DF91CF911F91D0
S11322600F910895EF92FF921F93CF93DF93EC01A8
S11322707B01E9A9FAA982E00995E9A9FAA981E013
S1132280099520E030E045E1B701CE010E94E71056
S1132290182F882341F09E012D5C3F4F47E1B70181
S11322A0CE010E94E710E9A9FAA980E00995812FDF
S11322B0DF91CF911F91FF90EF900895CF93DF931B
S11322C01F92CDB7DEB79E012F5F3F4F46E40E94B9
S11322D0E71089810F90DF91CF910895CF93DF9319
S11322E01F92CDB7DEB79E012F5F3F4F47E40E9498
S11322F0E71089810F90DF91CF91089520E030E0BD
S113230048E40E94E7100895CF93DF93EC016A81BB
S11323107B810E945E1188836A817B81CE010E9449
S11323206E1189836A817B81CE010E947E118B8725
S11323309E012D5C3F4F6A817B8147E1CE010E9463
S1132340E710DF91CF910895CF93DF93EC016A8179
S11323507B810E94EC10882321F0CE010E9484111D
S113236081E0DF91CF910895EF92FF921F93CF9375
S1132370DF93EC017B01142F0E94BB10FB82EA82E5
S11323801EA7CE010E94A411DF91CF911F91FF904F
S1132390EF900895FC01628173810E940C110895ED
S11323A0CF93DF93EC01EE85FF85309709F0099513
S11323B06A817B81CE010E943211DF91CF91089511
S11323C00F93FC0182819381648F458F278F068F41
S11323D09F01245E3F4F4BE3BC01CF010E94E710F5
S11323E00F910895FC0112828081815083831482AD
S11323F00895FC0190818281890F82832181821753
S113240060F484818F5F84838381980F921710F026
S11324109FEF920F938381E0089580E00895DC019B
S11324201696ED91FC91179715968C919F01280FA4
S1132430311DC9011192E817F907E1F70895FC016C
S113244091E08381861708F490E031E0461708F0A4
S113245030E0832F892B21E05281451708F420E0D6
S11324602823832F8923822B0895DC01FB0110820A
S113247012968C911297818315968C9115978150A1
S1132480828313968C9183830895FB013181238188
S1132490213019F0233021F006C048E0430F04C076
S11324A0432F385001C0432F632F0E941F120895F9
S11324B0FC01CB01BA012681378145810E94430C7E
S11324C00895DC011696ED91FC91179712968C9164
S11324D0481B477081E090E002C0880F991F4A951D
S11324E0E2F7E60FF11D222321F09081892B8083EE
S11324F0089580959081892380830895FB0141810B
S1132500FC012281421770F02381241758F0FB014B
S11325103081FC012581321728F4FB012481632FCB
S11325200E9461120895DF92EF92FF920F931F931E
S1132530CF93DF937C01EB011A818B81813049F0C9
S113254028F0823051F0833059F00EC0D12C01E0D4
S11325500DC0DD24D39400E009C0D12C0FEF06C0D8
S1132560DD24DA9400E002C0D12C00E0112324F42D
S1132570BE01C7010E947E129881900F98839981B1
S11325809D0D9983110F91F7DF91CF911F910F91B9
S1132590FF90EF90DF9008950F931F93CF93DF93F5
S11325A0FB01C281D38150E0FA017497E433F10551
S11325B0C8F58901EC5CFF4F0C94DC14B901CE0121
S11325C00E944512882381F1B801CE010E94931222
S11325D081E02BC0B901CE010E947E1281E025C0AA
S11325E0CE010E940F12CE010E94F21181E01DC0A3
S11325F0CE010E94F9118823C1F0CE010E940F126E
S113260081E013C0B901CE010E94351281E00DC0F2
S11326108D81F901808381E008C08981F90180837B
S113262081E003C081E001C081E0DF91CF911F917F
S11326300F91089508951F920F920FB60F921124CF
S11326402F938F939F93EF93FF938091C0002091DA
S1132650C6008871E091B901EF5FEF719091B80104
S1132660E91739F0E093B901F0E0E454FE4F208318
S113267001C082E08093B701FF91EF919F918F9108
S11326802F910F900FBE0F901F9018951F920F92CD
S11326900FB60F9211248F939F93EF93FF93909112
S11326A0BB018091BA01981769F0E091BA01EF5F1C
S11326B0EF71E093BA01F0E0E452FE4F8081809321
S11326C0C60005C0E1ECF0E080818F7D8083FF913E
S11326D0EF919F918F910F900FBE0F901F901895BF
S11326E00E9484130C946C140E94651458F00E9488
S11326F05E1440F029F45F3F29F00C9455145111F5
S11327000C94A0140C945B140E947D1468F3992318
S1132710B1F3552391F3951B550BBB27AA276217D9
S11327207307840738F09F5F5F4F220F331F441FE6
S1132730AA1FA9F335D00E2E3AF0E0E832D091501A
S11327405040E695001CCAF72BD0FE2F29D0660F07
S1132750771F881FBB1F261737074807AB07B0E84A
S113276009F0BB0B802DBF01FF2793585F4F3AF050
S11327709E3F510578F00C9455140C94A0145F3FBF
S1132780E4F3983ED4F3869577956795B795F795D6
S11327909F5FC9F7880F911D9695879597F90895BE
S11327A0E1E0660F771F881FBB1F6217730784075A
S11327B0BA0720F0621B730B840BBA0BEE1F88F769
S11327C0E09508950E94E9136894B1110C94A01443
S11327D008950E94851488F09F5798F0B92F99277F
S11327E0B751B0F0E1F0660F771F881F991F1AF0F8
S11327F0BA95C9F714C0B13091F00E949F14B1E0AA
S113280008950C949F14672F782F8827B85F39F0A8
S1132810B93FCCF3869577956795B395D9F73EF490
S113282090958095709561957F4F8F4F9F4F089538
S1132830E89409C097FB3EF4909580957095619556
S11328407F4F8F4F9F4F9923A9F0F92F96E9BB270C
S11328509395F695879577956795B795F111F8CF88
S1132860FAF4BB0F11F460FF1BC06F5F7F4F8F4FF3
S11328709F4F16C0882311F096E911C0772321F0E9
S11328809EE8872F762F05C0662371F096E8862F81
S113289070E060E02AF09A95660F771F881FDAF7D8
S11328A0880F9695879597F9089597F99F6780E81B
S11328B070E060E008959FEF80EC089500240A948E
S11328C01616170618060906089500240A94121607
S11328D01306140605060895092E0394000C11F43A
S11328E0882352F0BB0F40F4BF2B11F460FF04C0E7
S11328F06F5F7F4F8F4F9F4F089557FD9058440F40
S1132900551F59F05F3F71F04795880F97FB991F4A
S113291061F09F3F79F08795089512161306140607
S1132920551FF2CF4695F1DF08C016161706180694
S1132930991FF1CF86957105610508940895E8946F
S1132940BB2766277727CB0197F9089597FB072EB6
S113295016F4009407D077FD09D00E94E21407FC16
S113296005D03EF4909581959F4F0895709561959B
S11329707F4F0895A1E21A2EAA1BBB1BFD010DC0B7
S1132980AA1FBB1FEE1FFF1FA217B307E407F5071B
S113299020F0A21BB30BE40BF50B661F771F881FF7
S11329A0991F1A9469F760957095809590959B018D
S11329B0AC01BD01CF010895EE0FFF1F0590F49106
S11329C0E02D0994AA1BBB1B51E107C0AA1FBB1F22
S11329D0A617B70710F0A61BB70B881F991F5A95A7
S11329E0A9F780959095BC01CD010895BB274A3085
S11329F031F4992322F4BDE2909581959F4F0C9474
S1132A000215BB27FB015527AA27880F991FAA1F68
S1132A10A41710F0A41B83955051B9F7A05DAA33F5
S1132A2008F0A95DA193009779F7B111B1931192C0
S1132A30CB010C941B15DC01FC01672F71917723EA
S1132A40E1F7329704C07C916D9370836291AE1765
S10D2A50BF07C8F30895F894FFCF00
S1132A5A3D0E0601E10C0840000000803701000029
S1132A6A0000000043616C6962726174696E672ECA
S1132A7A2E2E0043616C69622E20646F6E650049D4
S1072A8A646C65000F
S9030000FC
