S01200006F6C656453637265656E2E737265630E
S11300000C9434000C9449000C9449000C9449005D
S11300100C9449000C9449000C9449000C94490038
S11300200C9449000C9449000C9449000C94490028
S11300300C9449000C9449000C9449000C94490018
S11300400C9449000C9449000C9449000C94490008
S11300500C9449000C9449000C9449000C944900F8
S11300600C9449000C94490011241FBECFEFD8E032
S1130070DEBFCDBF16E0A0E0B1E0EEEDF3E002C0DC
S113008005900D92AC3EB107D9F70E9472010C9411
S1130090ED010C9400001092B9008CE08093B8003C
S11300A0089594EA9093BC004FEF50E060E070E054
S11300B0ECEBF0E09081992334F04150510961094F
S11300C07109C0F704C0452B462B472B41F1909191
S11300D0B900987F983011F0903119F58093BB00E6
S11300E084E88093BC008FEF90E0A0E0B0E0ECEBFC
S11300F0F0E0208122232CF00197A109B109C8F76F
S113010004C0892B8A2B8B2B71F09091B900987FB6
S1130110983159F081E0903449F480E0089581E009
S1130120089581E0089581E0089580E0089584E9C8
S11301308093BC0080E090E0ECEBF0E0208124FFB1
S113014005C00196811521E09207C1F708958093B7
S1130150BB0084E88093BC008FEF90E0A0E0B0E0A7
S1130160ECEBF0E0208122232CF00197A109B109E6
S1130170C8F704C0892B8A2B8B2B41F09091B900CE
S1130180987F81E0983219F480E0089581E0089521
S113019020E034E0FC01A901119241505040E1F704
S11301A008958F929F92AF92BF92CF92DF92EF9277
S11301B0FF920F931F93CF93DF936A0181E20E9412
S11301C0A70080E00E94A7008FE70E94A70082E2B8
S11301D00E94A70080E00E94A70087E00E94A70079
S11301E0E8EBF0E080808CE08083E12CF12C0F2E92
S11301F0F8EBAF2EB12CF02D99249A9488E70E9445
S11302005100882321F00E94970095B818C080E41B
S11302100E94A700E601CE0DDF1D8701005F1F4F7E
S11302200C0D1D1D89910E94A700C017D107D1F79D
S11302308FE0E80EF11C0E949700F5018082FFEF29
S1130240EF1AFF0AE11484E0F806C0F2DF91CF91BF
S11302501F910F91FF90EF90DF90CF90BF90AF90E0
S11302609F908F90089550E0FA01EE0FFF1FEE0F5C
S1130270FF1F4E0F5F1FFA01E05AFB4F90E040E86A
S1130280649F800D911D1124D901A80FB91F0596F3
S1130290280F391F81918D93A217B307D9F70895B9
S11302A0EF92FF920F931F93CF93DF93FA01408154
S11302B0442389F079018F01D62F0F5F1F4FC82F78
S11302C097016D2F8C2F0E943301F80141918F010A
S11302D0CB5F4111F5CFDF91CF911F910F91FF902B
S11302E0EF9008958FEF84B915B80E944B0088E70A
S11302F00E945100882329F00E9497008FEF85B94E
S11303006BC08EEA0E94A70080E00E94A70080E1F3
S11303100E94A70080E40E94A70081E80E94A70031
S11303208FEC0E94A70081EA0E94A70088EC0E943B
S1130330A70086EA0E94A70084EA0E94A70088EA30
S11303400E94A7008FE30E94A70083ED0E94A700EC
S113035080E00E94A70085ED0E94A70080E80E942B
S1130360A70089ED0E94A70081EF0E94A7008AEDF3
S11303700E94A70082E10E94A7008BED0E94A700C3
S113038080E40E94A70080E20E94A70080E00E940F
S1130390A70080E40E94A7008DE80E94A70084E1E2
S11303A00E94A70084EA0E94A7008FEA0E94A70087
S11303B080E091E00E94C80020E031E045EE56E084
S11303C060E08AE00E94500140E051E060E080E09B
S11103D00E94D1000E949700FFCFF894FFCF47
S11303DEAA55AA55AA55AA55AA55AA55AA55AA5513
S11303EEAA55AA55AA55AA55AA55AA55AA55AA5503
S11303FEAA55AA55AA55AA55AA55AA55AA55AA55F3
S113040EAA55AA55AA55AA55AA55AA55AA55AA55E2
S11307DE000000000000004F000000070007001496
S11307EE7F147F14242A7F2A122313086462364945
S11307FE5522500005030000001C22410000412236
S113080E1C0014083E081408083E08080050300066
S113081E00080808080800606000002010080402A0
S113082E3E5149453E00427F4000426151494621B6
S113083E41454B311814127F1027454545393C4A22
S113084E4949300171090503364949493606494972
S113085E291E0036360000005636000008142241C8
S113086E0014141414140041221408020151090630
S113087E324979413E7E1111117E7F494949363EF6
S113088E414141227F4141221C7F494949417F090F
S113089E0909013E4149497A7F0808087F00417FD2
S11308AE41002040413F017F081422417F404040D7
S11308BE407F020C027F7F0408107F3E4141413E7F
S11308CE7F090909063E4151215E7F0919294646D1
S11308DE4949493101017F01013F4040403F1F20FA
S11308EE40201F3F4038403F6314081463070870CC
S11308FE08076151494543007F4141000204081035
S113090E200041417F000402010204404040404067
S113091E010204000020545454787F48444438386B
S113092E44444420384444487F3854545418087E70
S113093E090102064949493F7F0804047800447DB1
S113094E40002040443D007F1028440000417F4079
S113095E007C0418047C7C0804047838444444382D
S113096E7C14141408081414187C7C080404084815
S113097E54545420043F4440203C4040207C1C20CE
S113098E40201C3C4030403C44281028440C50501D
S113099E503C4464544C44000836410000007F002F
S11309AE0000413608000201020402080C0E0C0875
S10F09BE08183818084A4F48414E210020
S9030000FC
