S01400006D70755F636F6E6E746573742E73726563F1
S11300000C9434000C9446000C9446000C94460066
S11300100C9446000C9446000C9446000C94460044
S11300200C9446000C9446000C9446000C94460034
S11300300C9446000C9446000C9446000C94460024
S11300400C9446000C9446000C949B020C94C6023B
S11300500C9446000C9446000C9446000C94460004
S11300600C9446000C94460011241FBECFEFD8E038
S1130070DEBFCDBF21E0A0E0B1E001C01D92A534F8
S1130080B207E1F70E9423010C9481040C94000050
S11300901092B9008CE08093B800089594EA90938C
S11300A0BC004FEF50E060E070E0ECEBF0E09081DA
S11300B0992334F04150510961097109C0F704C012
S11300C0452B462B472B41F19091B900987F9830EE
S11300D011F0903119F58093BB0084E88093BC0043
S11300E08FEF90E0A0E0B0E0ECEBF0E02081222381
S11300F02CF00197A109B109C8F704C0892B8A2BF8
S11301008B2B71F09091B900987F983159F081E070
S1130110903449F480E0089581E0089581E00895E1
S113012081E0089580E0089584E98093BC0080E034
S113013090E0ECEBF0E0208124FF05C001968115EE
S113014021E09207C1F708958093BB0084E880936F
S1130150BC008FEF90E0A0E0B0E0ECEBF0E0208199
S113016022232CF00197A109B109C8F704C0892BF7
S11301708A2B8B2B41F09091B900987F81E09832C3
S113018019F480E0089581E0089584EC8093BC0024
S11301908FEF90E0A0E0B0E0ECEBF0E020812223D0
S11301A02CF00197A109B109C8F704C0892B8A2B47
S11301B08B2B19F08091BB00089580E0089584E8AA
S11301C08093BC008FEF90E0A0E0B0E0ECEBF0E0B7
S11301D0208122232CF00197A109B109C8F704C09A
S11301E0892B8A2B8B2B19F08091BB00089580E01A
S11301F00895CF93DF93C82F80ED0E944E008C2F7B
S11302000E94A40083E08A95F1F7000081ED0E942A
S11302104E000E94C500D82F0E94DF00C82F0E9404
S113022094006C2F70E07D2B072E000C880B990B2B
S11302300E945F0320E030E040E858E30E94F003AE
S1130240DF91CF91089514B878940E946A0283EDE7
S113025090E30197F1F700C000008BE390E00E9467
S1130260F9006B017C018DE390E00E94F900E894B1
S1130270F7F89B01AC015F77C701B6010E94F10258
S11302806B017C018FE390E00E94F9009B01AC01BB
S11302905F77C701B6010E94F10220E030E040E040
S11302A050E40E94EB031816C4F6289A9FE32DE04D
S11302B083E0915020408040E1F700C0000028987E
S11302C0CCCFAF92BF92DF92EF92FF920F931F9326
S11302D0CF93DF936623B9F1C52FD42FD62E182FD1
S11302E080ED0E944E00812F0E94A40083E08A9535
S11302F0F1F7000081ED0E944E000D2F1C2FEE241B
S1130300EA94ED0CF12CEFEFEE1AFE0AC0E0D0E017
S1130310AD2CB12CF1E0AF1AB108CA15DB0529F4F4
S11303200E94DF00F801808304C00E94C500F80128
S1130330808321960F5F1F4FCE15DF0571F7CD2DFA
S11303400E94940001C0C0E08C2FDF91CF911F91D7
S11303500F91FF90EF90DF90BF90AF900895AB01A5
S113036061E00E9461010895EF92FF920F931F9341
S1130370CF93DF936623D1F07A01162FC82F80ED37
S11303800E944E008C2F0E94A400E7016FEF610FC2
S1130390062F10E00F5F1F4F0E0D1F1D89910E9445
S11303A0A400C017D107D1F70E949400DF91CF9128
S11303B01F910F91FF90EF900895CF93DF931F92B9
S11303C0CDB7DEB76983AE014F5F5F4F61E00E9436
S11303D0B4010F90DF91CF910895EF92FF920F93A4
S11303E01F93CF93DF931F92CDB7DEB7442389F1D8
S11303F0F22E142F062FE82E1982BE016F5F7F4F55
S11304000E94AF01882329F1402F50E0411B51097C
S11304104F5F5F4F81E090E002C0880F991F1A95EB
S1130420E2F70197042E02C0880F991F0A94E2F79D
S11304302F2D30E002C0220F331F4A95E2F7682FB8
S11304406095998169238223682B69838E2D0E948C
S1130450DD010F90DF91CF911F910F91FF90EF90ED
S11304600895FF920F931F93CF93DF931F92CDB7FD
S1130470DEB7182F062FF42EBE016F5F7F4F0E9448
S1130480AF01FF2059F021E030E0B90102C0660F4E
S1130490771F0A95E2F78981682B0BC021E030E0D1
S11304A0B90102C0660F771F0A95E2F7609599813A
S11304B069236983812F0E94DD010F90DF91CF9121
S11304C01F910F91FF90089540E066E08BE60E9433
S11304D0310208950E94480083E08A95F1F70000F4
S11304E087EA91E60197F1F700C000000E946402D8
S11304F083EC99E00197F1F700C0000021E043E0AC
S113050062E08BE60E94ED0123E043E062E08AE1D1
S11305100E94ED0164E089E10E94DD0123E042E0F4
S113052064E08BE10E94ED0120E042E064E08CE1B4
S11305300E94ED0108951F920F920FB60F9211249D
S11305402F938F939F93EF93FF938091C0002091FB
S1130550C6008871E0910201EF5FEF719091010193
S1130560E91739F0E0930201F0E0EB5FFE4F2083DE
S113057001C082E080930001FF91EF919F918F91E0
S11305802F910F900FBE0F901F9018951F920F92EE
S11305900FB60F9211248F939F93EF93FF93909133
S11305A0040180910301981769F0E0910301EF5F62
S11305B0EF71E0930301F0E0EB5DFE4F80818093E7
S11305C0C60005C0E1ECF0E080818F7D8083FF915F
S11305D0EF919F918F910F900FBE0F901F901895E0
S11305E05058BB27AA270E9408030C94B1030E9409
S11305F0A30338F00E94AA0320F039F49F3F19F4B2
S113060026F40C94A0030EF4E095E7FB0C949A03F3
S1130610E92F0E94C20358F3BA17620773078407CD
S1130620950720F079F4A6F50C94E4030EF4E09514
S11306300B2EBA2FA02D0B01B90190010C01CA0198
S1130640A0011124FF27591B99F0593F50F4503E43
S113065068F11A16F040A22F232F342F4427585F35
S1130660F3CF469537952795A795F0405395C9F74D
S11306707EF41F16BA0B620B730B840BBAF0915005
S1130680A1F0FF0FBB1F661F771F881FC2F70EC0A4
S1130690BA0F621F731F841F48F487957795679577
S11306A0B795F7959E3F08F0B0CF9395880F08F063
S11306B09927EE0F979587950895E89409C097FBBD
S11306C03EF490958095709561957F4F8F4F9F4F25
S11306D09923A9F0F92F96E9BB279395F695879569
S11306E077956795B795F111F8CFFAF4BB0F11F42C
S11306F060FF1BC06F5F7F4F8F4F9F4F16C08823D3
S113070011F096E911C0772321F09EE8872F762F08
S113071005C0662371F096E8862F70E060E02AF049
S11307209A95660F771F881FDAF7880F9695879535
S113073097F9089597F99F6780E870E060E008955D
S11307409FEF80EC089500240A94161617061806E5
S11307500906089500240A941216130614060506C1
S11307600895092E0394000C11F4882352F0BB0F52
S113077040F4BF2B11F460FF04C06F5F7F4F8F4FB5
S11307809F4F089557FD9058440F551F59F05F3FF0
S113079071F04795880F97FB991F61F09F3F79F09F
S11307A087950895121613061406551FF2CF469521
S11307B0F1DF08C0161617061806991FF1CF8695A3
S11307C07105610508940895E894BB276627772787
S11307D0CB0197F908950E945D0408F48FEF089502
S11307E00E9403040C94B1030E94A30338F00E94F6
S11307F0AA0320F0952311F00C949A030C94A003FF
S113080011240C94E5030E94C20370F3959FC1F375
S1130810950F50E0551F629FF001729FBB27F00DAA
S1130820B11D639FAA27F00DB11DAA1F649F6627FF
S1130830B00DA11D661F829F2227B00DA11D621F4E
S1130840739FB00DA11D621F839FA00D611D221F08
S1130850749F3327A00D611D231F849F600D211DEC
S1130860822F762F6A2F11249F5750409AF0F1F06F
S113087088234AF0EE0FFF1FBB1F661F771F881FD8
S113088091505040A9F79E3F510580F00C949A0373
S11308900C94E5035F3FE4F3983ED4F38695779593
S11308A06795B795F795E7959F5FC1F7FE2B880F7E
S11308B0911D9695879597F90895990F0008550FFE
S11308C0AA0BE0E8FEEF16161706E807F907C0F0D2
S11308D012161306E407F50798F0621B730B840BDA
S11308E0950B39F40A2661F0232B242B252B21F4B4
S11308F008950A2609F4A140A6958FEF811D811D54
S10909000895F894FFCFF6
S9030000FC
