S00F00004F4C45444C69622E73726563DA
S11300000C9434000C943E000C943E000C943E007E
S11300100C943E000C943E000C943E000C943E0064
S11300200C943E000C943E000C943E000C943E0054
S11300300C943E000C943E000C943E000C943E0044
S11300400C943E000C943E000C943E000C943E0034
S11300500C943E000C943E000C943E000C943E0024
S11300600C943E000C943E0011241FBECFEFD8E048
S1130070DEBFCDBF0E94C3000C9426010C94000087
S11300801092B9008DEF8093B800089594EA90938C
S1130090BC004FEF50E060E070E0ECEBF0E09081EA
S11300A0992334F04150510961097109C0F704C022
S11300B0452B462B472B41F19091B900987F9830FE
S11300C011F0903119F58093BB0084E88093BC0053
S11300D08FEF90E0A0E0B0E0ECEBF0E02081222391
S11300E02CF00197A109B109C8F704C0892B8A2B08
S11300F08B2B71F09091B900987F983159F081E081
S1130100903449F480E0089581E0089581E00895F1
S113011081E0089580E008958093BB0084E8809393
S1130120BC008FEF90E0A0E0B0E0ECEBF0E02081C9
S113013022232CF00197A109B109C8F704C0892B27
S11301408A2B8B2B41F09091B900987F81E09832F3
S113015019F480E0089581E008958FEF85B92FE5C3
S11301603AEE90E0215030409040E1F700C00000AA
S113017015B82FE53AEE90E0215030409040E1F779
S113018000C00000EBCF8FEF84B915B80E94400087
S113019088E70E94460081110E94AD008EEA0E9409
S11301A08C0080E00E948C0080E10E948C0080E43E
S11301B00E948C0081E80E948C008FEC0E948C00CD
S11301C081EA0E948C0088EC0E948C0086EA0E94DE
S11301D08C0084EA0E948C0088EA0E948C008FE3E1
S11301E00E948C0083ED0E948C0080E00E948C00B1
S11301F085ED0E948C0080E80E948C0089ED0E94AD
S11302008C0081EF0E948C008AED0E948C0082E1B8
S11302100E948C008BED0E948C0080E40E948C0074
S113022080E20E948C0080E00E948C0080E40E94A6
S11302308C008DE80E948C0084E10E948C0084EA8A
S11302400E948C008FEA0E948C00FFCFF894FFCFAD
S9030000FC
